:020000040800F2
:1000000018100020E5870008818700088387000812
:1000100000000000000000000000000000000000E0
:1000200000000000000000000000000087870008BA
:100030000000000000000000898700088B8700088E
:100040005F440008BF440008374900086B500008AF
:100050000B5B0008475B0008975B0008E36700083C
:100060008F7800089B7900089F7900085F87000857
:100070006B8700089387000800000000758800085F
:100080000000000077880008000000000000000069
:1000900079880008000000007B8800087D8800083F
:1000A0007F88000881880008838800088588000808
:1000B0008788000889880008000000008B880008F5
:1000C000000000000000001000000003FFC000005E
:1000D0001E0038000070F0040000C0F8010001802C
:1000E000F800000300F8000006007F00000C007F0D
:1000F00080001800FFE0001800E0F0003000E06031
:10010000003001E000003007E0000060EF800000F8
:1001100061FE00000061FE00000061FE0000006062
:10012000EE000000600F0000007007C0000030010A
:10013000E000003000E000003800E000001800F0AF
:1001400070001C00F5E0000E003FC0000600FF003C
:10015000000701F0000003C1F8000000E1F0010019
:100160000078600600001F0018000007FFE0000094
:1001700000FE000000000000000000000000000081
:10018000000000000000000000000000000000006F
:10019000000000000000000000000000000000005F
:1001A000000000000000000000000000000000004F
:1001B000000000000000000000000000000000003F
:10390000F8B5B4B0002700F0ABFD00F014FC00F0F7
:1039100045FDFA20400100F0B9FD00F061FC00F027
:103920007BFC00F0A1FC00F003FD00F01DFD00F0A9
:10393000BEFD002000F008FE282000902823B54A94
:103940000C21002000F03EFF012000901023B24A1D
:103950000821322000F0F4FE00F0CBFD01200090A1
:103960000C23AE4A1721282000F0EAFE0120009027
:103970001023ABA22321372000F0E2FE00F0B9FDB6
:10398000A84800F061FB0A2000F080FD00F06AF911
:103990006946087168460079002806D10C23A24ABE
:1039A0002A21192000F0FCF9F4E700200100C9B237
:1039B0000F290BDA9D490200D2B28918C97A303931
:1039C0009B4A0300DBB2D154401CEFE71023994A15
:1039D0003221192000F0E4F900F08DFC0020964916
:1039E0000870642000F052FD00F070FB642000F0CD
:1039F0004DFD322000F04AFD904D914C00222100F7
:103A0000280001F09FF800228E49280001F054F9A7
:103A10008D48A17801708D4962780A7022788C4BAC
:103A20001A700A78002A02D10278042A0BDB0A787D
:103A3000142A02D10278042A05DB0978282905D145
:103A40000078042802DA04207B49087000252E0043
:103A500079480078002802D001282FD0B2E001F088
:103A6000B5F9002829D1012001F0A9F9002824D1B5
:103A7000784801F0AFF980281FD176482900C1713C
:103A8000754C210001F025FA00280DD12F003800D7
:103A9000C0B2102808DA3800C0B2205C30303900DB
:103AA000C9B260547F1CF2E710236C4A2D21192003
:103AB00000F076F90120604908709AE73000C0B242
:103AC000052852DA1BA86649642201F0A7FA3000E3
:103AD000C0B2032847DA0A2000F0D8FC1BA800F087
:103AE00085F9012000F0D2FC2C002000C0B2102883
:103AF0000EDAFA239B00012257482100C9B241186F
:103B0000A54801F0F3FA012000F0C0FC641CECE7CA
:103B1000C44C2200C4A1A1A000F0A0F9002822D02A
:103B20000120009010233EA228213C2000F008FE36
:103B300000F0DFFC0A2000F0A9FC2200BAA1BB487B
:103B400000F08CF900280ED02100B9A000F00EFA88
:103B5000002808D01023B74A3221192000F020F99C
:103B60002800060001E0761CA8E79620400000F03F
:103B70008DFC3000C0B2002809D01023AE4A2F219E
:103B8000192000F00DF9FA20C00000F07FFC10238E
:103B9000284A3221192000F003F980246400012210
:103BA0002100A020C00501F087FF9620400000F012
:103BB0006DFC00222100A020C00501F07DFF1E4801
:103BC000057016E71023254A2D21192000F0E8F88A
:103BD00002A89A49642201F021FA924C220092A193
:103BE00002A800F03BF900280AD022008EA18F48DD
:103BF00000F034F9002803D021008DA000F0B6F9C0
:103C00000D48057010230B4A3221192000F0C8F826
:103C1000EFE60000C00000083C880008F4870008B8
:103C20002E00000044880008A4870008EC0700204C
:103C3000F00B00204C880008120C0020A80B00207C
:103C4000CC0B0020080C0020130C0020140C0020CA
:103C5000150C0020000C0020E00B0020008800085C
:103C6000748500087CB5002000F06EFC28200090D0
:103C70002823B54A0C21002000F0A4FD012000906B
:103C80001023B24A0821322000F05AFD0120009092
:103C90000C23AF4A1721282000F052FDADA40120CB
:103CA0000090102322002321372000F049FD00F06E
:103CB00020FC5DA65B4D2A003100A7A000F0CEF8E5
:103CC000002866D0012000901023220023213C20F0
:103CD00000F036FD00F00DFC0A2000F0D7FB2A00B2
:103CE00031009E4800F0BAF8002850D00120009022
:103CF000102322002321412000F022FD00F0F9FBD7
:103D00000A2000F0C3FB2A003100954800F0A6F815
:103D100000283AD0012000901023220023214620C1
:103D200000F00EFD00F0E5FB0A2000F0AFFB2A00DA
:103D300031008C4800F092F8002824D00120009037
:103D40001023220023214B2000F0FAFC00F0D1FBCD
:103D50000A2000F09BFB2A003100834800F07EF827
:103D600000280ED001200090102322002321502093
:103D700000F0E6FC00F0BDFB0A2000F087FB01200C
:103D800008E0002006E0002004E0002002E000201F
:103D900000E0002076BD0000E009002022000000C5
:103DA000F8B507000E0015001C00002000F0CCFB49
:103DB000282000902823644A0C21002000F002FDF6
:103DC000012000901023614A02213E2000F0B8FC3F
:103DD000012000902300DBB22A003900C9B2300074
:103DE000C0B200F0ADFC00F084FBF1BD10B50400E2
:103DF000200001F083FE0200FA239B0092B2210012
:103E00008C4801F073F910BD10B50400200001F0DA
:103E100075FE0200FA239B0092B22100864801F051
:103E200065F910BD102700004F4B0000B487000853
:103E300032303000548800080C880008D88500080B
:103E400010B50400200001F059FE0022110081424B
:103E500003DA13006354491CF9E710BDF7B584B0C9
:103E60000020694608700024744F3800FFF7E8FF0F
:103E700001F04CFE019001F049FE0290049801F01F
:103E80003DFEFA239B00020092B204998E4801F095
:103E90002DF9FA239B00022269A18B4801F026F933
:103EA000684D894EFA239B0001222900300001F061
:103EB00094F9002808D001F029FE0199401A0699CA
:103EC0008142EDD200203DE001F020FE01902878F3
:103ED0002100C9B27854641C01F018FE0199401AFF
:103EE0000699884224D2FA239B000122290030003F
:103EF00001F073F9002808D128782100C9B278545C
:103F0000641C01F003FE0290E6E701F0FFFD029958
:103F1000401A6528E0D30599380001F0FDFD00281E
:103F200003D001206946087002E00020694608704D
:103F3000684600780028B3D03800FFF765FF684670
:103F4000007840B207B0F0BDC00000083C8800080F
:103F5000F48700082E00000041540000F486000899
:103F600014870008C487000818880008F3B583B0D8
:103F700000206946087000243048FFF761FF01F017
:103F8000C5FD019001F0C2FD02902E4DFA27BF0041
:103F90003B00012229004C4801F01FF9002808D0FD
:103FA00001F0B4FD0199401A04998142EDD200203C
:103FB0003DE001F0ABFD0190204E28782100C9B210
:103FC0007054641C01F0A2FD0199401A04998842C2
:103FD00023D23B00012229003B4801F0FEF80028D3
:103FE00008D128782100C9B27054641C01F08EFDFC
:103FF0000290E7E701F08AFD0299401A6528E1D3B3
:104000000399300001F088FD002803D001206946A3
:10401000087002E0002069460870684600780028B1
:10402000B3D03000FFF7F0FE6846007840B205B02C
:10403000F0BD0000E0090020600A00200404002018
:104040000D0A0000100C0020F1B582B00024684673
:104050000470D148FFF7F4FE029801F04FFD020012
:10406000194FFA25AD002B0092B20299380001F0E9
:104070003DF82B000222BAA1380001F037F8B94D03
:10408000FA26F600330001222900380001F0A5F8D5
:10409000002806D128783030BF492200D2B2885497
:1040A000641C2000C0B21F28E9DB33000122290074
:1040B000380001F092F80028F7D0B748FFF7A4FEC7
:1040C0006846007840B2FEBDE009002030B585B0FA
:1040D000142100252A006C46200001F035FDA024A3
:1040E000E40500220421200001F0E6FC04200090F9
:1040F000012001900295022003906946200001F002
:10410000DDFB01220421200001F0D6FC962000F006
:10411000BDF900220421200001F0CEFC962000F021
:10412000B5F901220421200001F0C6FC962000F020
:10413000ADF905B030BD30B59BB038210024220068
:104140000DAD280001F000FD142122006D4628006D
:1041500001F0FAFC2021220005AD280001F0F4FC5A
:10416000AC480168AC4A0A40802109011143016052
:104170002A200D900120109013901021119112907F
:104180000220179018948020C00219908020C0034C
:104190001A900DA801F000FD002801D000F05EF992
:1041A0000F200090032001900294039404940121B5
:1041B000684601F0C9FF002801D000F04FF92B201C
:1041C0000590079408940A9480208002069005A820
:1041D00002F01EF9002801D000F040F91BB030BDFC
:1041E00080B58E488E49016001210A0002718D4A16
:1041F00082600822C2600A0042718B4A026120225A
:10420000426180228261016202F0F4F9002801D04B
:1042100000F024F901BD000010B5844C84482060F2
:10422000844860600020A0600121E160206160613D
:10423000A061E0612062200002F0D4FA002801D0E1
:1042400000F00CF90021200002F0E6FC002801D06B
:1042500000F004F90021200002F011FD002801D037
:1042600000F0FCF810BD000038B586B01421002421
:10427000220001AD280001F067FC042122006D46F8
:10428000280001F061FC6C4D6C4828606C607F2058
:10429000A860FF20E8602C616C61AC61EC612800D3
:1042A00000F04AFB002801D000F0D8F801A8210056
:1042B0000170210041702100817004940594002256
:1042C00001A9280000F0A8FB002801D000F0C6F8E2
:1042D0000120694602000A7002004A708870CC70A2
:1042E00000226946280000F061FC002801D000F09F
:1042F000B5F807B030BD80B5514852490160822100
:104300004900416000218160C160016141618022FA
:10431000920082612022C2610162416281620721B2
:10432000C16202F0E1FC002801D000F097F801BD65
:1043300080B54548454901609621890141600021C9
:104340008160C16001610C2242618161C1610162D1
:10435000416200F08BFE002801D000F07FF801BD23
:104360000D0A0000F805002080B539483949016080
:1043700096218901416000218160C16001610C22A8
:1043800042618161C1610162416200F06FFE0028FB
:1043900001D000F063F801BDEC070020F8B586B04D
:1043A00004212D4802680A4302600268114000910E
:1043B00000990125016829430160016829400091A5
:1043C00000990224016821430160006820400090A8
:1043D000009814210026320001AF380001F0B4FB30
:1043E000A027FF05002280214900380001F064FB6E
:1043F00080204000019002950396049401A93800A2
:1044000001F05CFA002280214900380001F054FBE1
:1044100007B0F0BD00700040FFE7FFFF840B0020F5
:104420000030024021100000FFFF0000380B002088
:1044300000540040BB7C7000A80B00200028004006
:10444000E00A002000300140E0090020003801406F
:10445000600A0020004400402C1002407047FEE734
:1044600010B500240848016840220A430260002079
:1044700002F038FE002802D00120040001E002F022
:104480004DFE2000C0B210BD0020024070B50400F7
:1044900001F03CFB050026000020C043864200D00E
:1044A000761C01F033FB401BB042FAD370BD80B5DF
:1044B00000F001F801BD80B500F0C8F901BDFEE7CC
:1044C0003EB505000C002000C0B2002803D04020FB
:1044D0006946087102E000206946087101A845702C
:1044E00064200090022301AA7821934802F0DDF9AC
:1044F00037BD70B5002635002800C0B2082822DA82
:10450000002128005038C0B2FFF7DAFF0021022056
:10451000FFF7D6FF00211020FFF7D2FF3400200064
:10452000C0B280280DDA012184482200D2B20823CB
:104530005A4380182A00D2B2805CFFF7C1FF641C86
:10454000EDE76D1CD8E770BDF8B5060000273D000B
:104550002800C0B208281FDA002128005038C0B255
:10456000FFF7AEFF00210220FFF7AAFF0021102075
:10457000FFF7A6FF3C002000C0B280280ADA6F488F
:104580002100C9B20822514340182900C9B246543B
:10459000641CF0E76D1CDBE7FFF7ABFFF1BDF6B580
:1045A00004000D000020694608702000C0B2802879
:1045B00003DA2800C0B2402800DB43E008270726C2
:1045C0002800C0B2390002F0B3FE361A2800C0B28B
:1045D000390002F0ADFE68464170012007216A46AD
:1045E0005278891A88406946087068460079002820
:1045F00014D052482100C9B2082251434118320058
:10460000D2B22700FFB208235F43C0193300DBB2E8
:10461000C05C6B461B7803438B5413E04748210072
:10462000C9B20822514341183200D2B22700FFB26A
:1046300008235F43C0193300DBB2C05C6B461B78B4
:1046400098438854F3BDF9B581B00C0068464470B6
:10465000203A68460270002738006946097AC0B2DD
:10466000884267D26846007A0C281AD108A80078D8
:1046700000280AD05148694609780C225143401855
:104680003900C9B2405C050025E04C48694609780C
:104690000C22514340183900C9B2405CC1430D009F
:1046A00019E008A8007800280AD04548694609782A
:1046B0001022514340183900C9B2405C05000AE09D
:1046C0003F48694609781022514340183900C9B261
:1046D000405CC1430D00002006003000C0B2082835
:1046E00026DA280607D501222100C9B268460079DA
:1046F000FFF755FF06E000222100C9B268460079A5
:10470000FFF74DFF6D00641C2000C0B26946497878
:10471000401A6946097A884208D168464078040000
:1047200068460079401C6946087101E0761CD4E7B0
:104730007F1C91E7F7BD0000380B0020040000202B
:10474000FEB504000D0016003078002834D0022792
:10475000802100916846007A390002F0E9FD009955
:10476000081A2100C9B2884212DA002001000C00A8
:104770006946097A6D1840216A46127A891A2A0018
:10478000D2B2914204DA040025000020FFF7DCFEDB
:1047900008A8007800906846037A32782900C9B2E8
:1047A0002000C0B2FFF74FFF6846007A390002F0E0
:1047B000BFFD2418761CC7E7F7BD0000907F0008F6
:1047C000A0790008F7B582B01F0008263800C0B2F3
:1047D000C01D310002F0ACFD6946088000252800AC
:1047E0000AA9097880B289B288422DD2002004003B
:1047F00020003900C9B280B289B2884222D220009A
:1048000080B2310002F094FD049A290089B26B460F
:104810001B8859435118095C802022005207520F0F
:10482000104101420CD001226846007B290041184A
:10483000C9B26846007A2300C018C0B2FFF7AFFEC5
:10484000641CD5E76D1CCAE705B0F0BD80B500213A
:10485000AE20FFF735FE00210020FFF731FE0021DA
:104860001020FFF72DFE00214020FFF729FE002138
:104870008120FFF725FE0021CF20FFF721FE002138
:10488000A120FFF71DFE0021C020FFF719FE002127
:10489000A620FFF715FE0021A820FFF711FE00213A
:1048A0003F20FFF70DFE0021D320FFF709FE002176
:1048B0000020FFF705FE0021D520FFF701FE0021B3
:1048C0008020FFF7FDFD0021D920FFF7F9FD002131
:1048D000F120FFF7F5FD0021DA20FFF7F1FD0021BF
:1048E0001220FFF7EDFD0021DB20FFF7E9FD00219D
:1048F0004020FFF7E5FD00212020FFF7E1FD00212A
:104900000220FFF7DDFD00218D20FFF7D9FD0021FA
:104910001420FFF7D5FD0021A420FFF7D1FD0021D1
:10492000A620FFF7CDFD0021AF20FFF7C9FD002035
:10493000FFF70AFE01BDFEE710B50400002C01D10F
:10494000012068E02120205C002805D100202021E2
:104950006054200002F028FC022021216054CA206B
:1049600021684862532021684862200000F0ECF979
:10497000002807D0FF2021684862042021216054CC
:10498000012048E0206880688749014020688160F4
:1049900020688068616822690A43A1691143014364
:1049A00020688160E0682168086120680069A1686A
:1049B00009040143206801612068C06880218843A0
:1049C0002168C8602068C06C032188432168C864DE
:1049D0002068C06CE16962690A4302432068C264CE
:1049E0002068806880060FD4200000F093F900282A
:1049F0000AD0FF2021684862042021216054002051
:104A000020216054012006E0FF2021684862012037
:104A100021216054002010BDF7B504002020205C47
:104A2000012801D102208CE00125280020216054BA
:104A30000220212160540298002820D1206880683B
:104A4000400602D400200199C8700198007800F057
:104A50009DF907000198407800F098F90600019848
:104A6000807800F093F9FFB23904F6B232020A43BB
:104A7000C0B210430199C9780E04064314E02068BF
:104A80008068400602D400200199C870019800781F
:104A9000000401994978090201430198807808438C
:104AA0000199C9780E040643CA2021684862532040
:104AB00021684862200000F047F900280AD0FF2052
:104AC0002168486204202121605400202021605484
:104AD000012036E08C4830402168086020688068FA
:104AE0008A49014020688160206880680199C9680E
:104AF000019A12690A430243206882602068C068F4
:104B0000802188432168C8602068806880060FD4AF
:104B1000200000F0FFF800280AD0FF20216848623A
:104B2000042021216054002020216054012008E04D
:104B3000FF20216848622120255400202021605454
:104B40000020FEBDF8B504000D0017002068806A43
:104B50006860206800694004400CA8602068006814
:104B6000694E06403000000C8006800E28707F20C1
:104B7000310A0140697031000840A8703000000C13
:104B800040210840E870002F0BD1287800F00DF983
:104B90002870687800F009F96870A87800F005F9C5
:104BA000A8700020F2BD0000BFFF8FFFF7B5040022
:104BB0002020205C012801D102207CE00125280072
:104BC00020216054022021216054029800280AD13B
:104BD00001984078C00606D501984078EF21014041
:104BE0000A31019841700298002819D10198C078C3
:104BF00000F0CCF807000198407800F0C7F80600F4
:104C00000198807800F0C2F8FFB23904F6B232029F
:104C10000A43C0B21043019909784E0306430DE0E0
:104C20000198C0780004019949780902014301986C
:104C300080780843019909784E030643CA20216809
:104C40004862532021684862200000F07DF8002867
:104C50000AD0FF20216848620420212160540020EE
:104C600020216054012026E0294830402168486016
:104C70002068C068802188432168C86020688068F7
:104C800080060FD4200000F045F800280AD0FF204D
:104C900021684862042021216054002020216054B2
:104CA000012008E0FF2021684862212025540020CF
:104CB000202160540020FEBDF8B504000D0017004F
:104CC00020684068124E06403000000CE870300A40
:104CD000C006C00E687030008006800EA870700B91
:104CE0004007400F2870002F0BD1E87800F05DF8E6
:104CF000E870687800F059F86870A87800F055F806
:104D0000A8700020F2BD00007F7F7F00FFFFFBFF47
:104D10003FFFFF0038B504002068C068A021884329
:104D20002168C86000F0F2FE05002068C0688006B7
:104D300007D400F0EBFE401B13498842F5D3032053
:104D400000E0002032BD000070B50400402620685D
:104D5000C0683040002813D10020C0432168C860DB
:104D600000F0D4FE05002068C0683040002807D15C
:104D700000F0CCFE401B04498842F4D3032000E03D
:104D8000002070BD00000000E903000000B5010034
:104D9000002208000300DBB20A2B02D3521C0A389F
:104DA000F8E712011043C0B200BD0100C9B2090901
:104DB0000A2251430007000F0818C0B2704710B50F
:104DC00004002000C0B202F02EFC10BD80B502F03D
:104DD000DBFB02BD10B50400200002F08AFC10BD10
:104DE000FCB504000D00200080B2884988426ED2D4
:104DF0000F2001AE210001403170210089B209115C
:104E000001407170210089B209120840B070200081
:104E100080B2000BF070F078B178401871784018CB
:104E2000062148433178401830700A27307839001D
:104E300002F07EFA694608703078390002F078FA9C
:104E40003170707869460978F27809235A438918D5
:104E5000B27805235A438918401870707078390069
:104E600002F066FA694608707078390002F060FA5C
:104E7000717068460078B178022251434018B070D2
:104E8000B078390002F054FA69460870B0783900F9
:104E900002F04EFAB17068460078F178042251436E
:104EA0004018F070F078390002F042FA6946087054
:104EB000F078390002F03CFAF170F0782870B078A0
:104EC00068707078A8703078E870002000E00120E9
:104ED000F6BDF0B585B004000E00A079232800DBF4
:104EE0008FE0E079002800D08BE08020400021781E
:104EF00062784243891889B20091A178E2784243EE
:104F0000891889B20191217962794243891889B25D
:104F10000291A179E2794243881880B20390009807
:104F20000399A42292005143029AE4235B015A435D
:104F30008918019AAD235B015A43891840180090E3
:104F4000324D0098290002F0F6F9049000982900EB
:104F500002F0F1F90091049803992D4A5143401849
:104F600002992C4A51434018019906225143401896
:104F700001900198290002F0DEF9049001982900BF
:104F800002F0D9F9019104980399234A514340183A
:104F900002992A225143401802900298290002F0F7
:104FA000CAF907000298290002F0C5F90291039896
:104FB000FF211A314843381803900398290002F062
:104FC000BAF904900398290002F0B5F9039103257A
:104FD000280040B2002812D4280040B20321C9435F
:104FE0004843301801000C3168462A0052B20423AD
:104FF0005A43805880B2FFF7F3FE6D1EE8E70020A9
:1050000000E0012005B0F0BD000000001027000006
:10501000F71D0000182500008D12000070B4103A32
:1050200003D378C9103A78C0FBD2530701D318C90B
:1050300018C001D508C908C0D20704D30B88038063
:10504000891C801C002A01D50B78037070BC704746
:105050008B0701D18307E1D0124205D00B78491CA0
:105060000370401C521EF9D17047FEE710B50400D2
:10507000002C01D1012035E0A0690028FFD1606F2C
:10508000002805D1002070216054200002F0D2F8E1
:105090002420606720680068012188432168086037
:1050A000200000F03FF9012801D101201AE0606AD8
:1050B000002802D0200000F013FB206840680A4955
:1050C000014020684160206880682A218843216867
:1050D0008860206800680121014320680160200089
:1050E00000F06DFB10BD0000FFB7FFFFFEB582B002
:1050F0000400606F20286DD10298002803D0684614
:105100008089002801D1012065E080256D01A0681B
:10511000A84207D12069002804D10298C00701D510
:10512000012058E07020205C012801D1022052E0CB
:105130000120702160540027E7672120606700F09C
:10514000E5FC01906846808950216052684680895C
:1051500052216052A068A84205D12069002802D1DE
:105160003D00029E01E0029D3E005220205A002890
:105170001ED004980090019B00228021200000F0A6
:1051800053FB002801D0032025E0002D06D13088F4
:10519000C005C00D21688862B61C03E0287821682C
:1051A00088626D1C5220205A401E52216052DCE75A
:1051B00004980090019B00224021200000F034FB65
:1051C000002801D0032006E02020606770202754CB
:1051D000002000E0022005B0F0BDFFB583B0040060
:1051E000A06F202800D098E00498002803D06846DB
:1051F000808A002801D1012090E080256D01A068FF
:10520000A84207D12069002804D10498C00701D51D
:10521000012083E07020205C012801D102207DE084
:105220000120702160540027E7672220A06700F06A
:105230006DFC02906846808A582160526846808AD8
:105240005A216052A068A8420AD12069002803D1DF
:1052500033485C21605224E0FF205C21605220E052
:10526000A06800280AD12069002803D1FF205C2112
:10527000605216E07F205C21605212E0A06880211D
:10528000490588420AD12069002803D17F205C218A
:10529000605206E03F205C21605202E038005C2151
:1052A00060525C20205A69468880A068A84205D1D7
:1052B0002069002802D13D00049E01E0049D3E00CB
:1052C0005A20205A002822D006980090029B0022E3
:1052D0002021200000F0A8FA002801D003201DE0C2
:1052E000002D07D12068406A6946898801403180D5
:1052F000B61C06E02068406A69468988014029702A
:105300006D1C5A20205A401E5A216052D8E7202096
:10531000A06770202754002000E0022007B0F0BDF5
:10532000FF010000FEB50500102001006A46517023
:105330000026370031006A4611700196AA492A6892
:105340008A42FFD0AA682B6913436C691C43EA693F
:1053500022432B681C68A54B234013432C68236011
:105360002B685C68A24B2340EC681C432B685C6094
:10537000AB6902932B688B4203D0029A2B6A1343CA
:1053800002932A6892689B4B1340029A1A432B6837
:105390009A602A68B34B9A4215D1B34A12689207B1
:1053A000920F002A05D0022A05D006D3032A06D080
:1053B00007E0012444E0022442E0042440E0082401
:1053C0003EE004003CE02A68A84B9A4216D1A64A67
:1053D00012680C231340002B06D0042B08D0082B96
:1053E00004D00C2B06D007E0340029E0022427E08B
:1053F000042425E0082423E0040021E02A688A42EE
:105400001DD1994A1268C0231B011340002B0CD0F8
:105410008022D20093420CD080221201934206D007
:10542000C0221201934206D007E0340008E00224B3
:1054300006E0042404E0082402E0040000E0040084
:105440002A688A425BD12100C9B2002906D002290C
:1054500008D0042911D0082913D016E000F0A3FFCA
:10546000019015E09B4909680840002802D09A483D
:10547000019001E0994801900AE000F045FF019099
:1054800006E080200002019002E0012069460870D9
:105490000198002800D118E101986968032251435E
:1054A000884206D3686880214901484301998842AF
:1054B00003D201206946087007E10198002180228B
:1054C0005200002302F052F902000B006868400805
:1054D0000021801859416A68002302F060F9070032
:1054E000C0208000874206D380204003874202D23A
:1054F0002868C760E9E0012069460870E5E080217E
:105500000902EA698A427BD12100C9B2002908D088
:10551000012913D002291ED0042935D0082940D0F2
:105520004AE000F040FF02214843696849084018FA
:10553000696801F000FF80B2070040E000F042FF20
:1055400002214843696849084018696801F0F3FE80
:1055500080B2070033E05F4909680840002809D09D
:1055600068684008AE494018696801F0E4FE80B2FE
:10557000070008E068684008AA494018696801F017
:10558000DAFE80B207001AE000F0BEFE02214843B6
:10559000696849084018696801F0CDFE80B20700CB
:1055A0000DE068684008802149024018696801F0F0
:1055B000C2FE80B2070002E0012069460870102F89
:1055C0001AD380204002874216D23900AF480840E3
:1055D00079084907490F0143684641806846408879
:1055E0002968C86071E000BF00480040F369FFEF20
:1055F000FFCFFFFFFFF4FFFF01206946087064E062
:105600002200D2B2002A08D0012A11D0022A1AD0D0
:10561000042A37D0082A40D048E000F0C4FE696868
:1056200049084018696801F086FE80B2070040E032
:1056300000F0C8FE696849084018696801F07BFEFF
:1056400080B2070035E023490968084000280FD0E0
:105650006868400820494018696801F06CFE80B213
:1056600007000EE0003801404C10024000440040AA
:105670006868400819494018696801F05CFE80B20A
:10568000070016E000F040FE6968490840186968A4
:1056900001F051FE80B207000BE068684008401836
:1056A000696801F048FE80B2070002E00120694607
:1056B0000870102F06D380204002874202D228684B
:1056C000C76002E00120694608702E666E66684673
:1056D0000078FEBD0010024000093D000024F400E7
:1056E00000B52421415CC90707D501684968684AAB
:1056F0000A40816A1143026851602421415C890794
:1057000007D501684968634A0A40C16A11430268C3
:1057100051602421415C490707D5016849685E4A08
:105720000A40016B1143026851602421415C090762
:1057300007D501684968594A0A40416B114302681C
:1057400051602421415CC90607D501688968544A23
:105750000A40816B1143026891602421415C8906F3
:1057600007D5016889684F4A0A40C16B1143026836
:1057700091602421415C490614D5016849684A4A70
:105780000A40016C114302685160016C802252038F
:10579000914207D101684968444A0A40416C11436B
:1057A000026851602421415C090607D501684968F7
:1057B0003F4A0A40816C11430268516000BD7CB5CC
:1057C00005000024EC6700F0A1F9060028680068D5
:1057D00000070CD537480090330000228021890350
:1057E000280000F021F8002801D0032016E02868E6
:1057F000006840070CD52F4800903300002280211C
:10580000C903280000F010F8002801D0032005E0AB
:1058100020206867A86770202C54002076BD000007
:1058200000127A000048E801F4B504000D001F00E2
:10583000069E2068C0692840A84201D1012000E0EE
:1058400000206946097888421ED10020C043864264
:10585000EFD000F05BF9C01B864201D3002EE8D1E7
:105860002068006814490140206801602068806851
:10587000012188432168886020206067A06700209C
:1058800070216054032000E00020F2BDF0FF000012
:10589000FFFFFDFFFFFFFEFFFFFFFBFFFF7FFFFF9F
:1058A000FFEFFFFFFFDFFFFFFFFFEFFFFFFF9FFFA8
:1058B000FFFFF7FFFFFFFF015FFEFFFFFCB50200E8
:1058C00000230020019000240868D840002800D15F
:1058D000F1E0012508682E009E40064001960198DF
:1058E000002800D1E5E04868022802D04868122864
:1058F0001FD1D808042670431018076A07200097A4
:105900000F26B4461F000740042677436646BE4074
:10591000009FB743BC460E691F00384004277843F8
:10592000864067463E433400D8080426704310186A
:1059300004624868012808D04868022805D04868F1
:10594000112802D0486812281CD19668032084468A
:105950001F00022047436046B8408643CF68BC46DC
:105960001800022778436746874037439760566898
:1059700028009840864348680009284098403043F2
:105980000400546017680326BC461F0002204743EA
:105990003000B840674687430097486830408446E7
:1059A0001F00022047436046B840009F38430090E4
:1059B00000981060D768BC461F00022047433000A3
:1059C000B840674687430097886884461F000220D6
:1059D00047436046B840009F38430400D46048689D
:1059E000C00066D53B4807682F4307603A488446A5
:1059F0009F08042047436046C05900900F27BC46CB
:105A00001F003000384004277843674687400098DD
:105A1000B843A027FF05BA4201D1002512E02F4C60
:105A2000A2420FD02E4CA24201D102250AE02D4CF9
:105A3000A24201D1350005E02B4CA24201D105253F
:105A400000E006251C00264004246643B5400543BB
:105A500021489C08042674430551244C2068019E6B
:105A6000B0434E68F60302D5050001982843206034
:105A70001F4D2C68019EB4434E68B60302D520002A
:105A8000019C04432C601B4D2868019EB0434E6866
:105A9000F60202D50400019820432860164D2C68B8
:105AA000019EB4434E68B60202D52000019C044317
:105AB0002C605B1C08E7F3BD00B51300DBB2002BC4
:105AC00003D00B009BB2836102E00B009BB28362A8
:105AD00000BD0000341002400800014000040050E6
:105AE00000080050000C0050001C00500004014051
:105AF00004040140080401400C040140431C0178E7
:105B0000401C0942FBD1C01A7047FEE701480068FB
:105B1000704700BF0C0C002070B50D78002D11D01F
:105B20000C0004E0491C0E78964207D0401C290066
:105B300001F06AFE002805D0010023005B1C1A78E2
:105B4000002AEFD170BDFEE71206130A1A43130CA8
:105B50001A4300BF094205D0830705D00270401CDC
:105B6000491EF9D1704700001300103906D330B434
:105B70001400150010393CC0FCD230BC490700D3DA
:105B80000CC000D504C0890002D30280801C00290B
:105B900000D502707047FEE7F0B585B00400002C18
:105BA00001D10120B7E2A74800680C210140029111
:105BB000A448006880214902084001902078C0076D
:105BC0005ED50298082807D002980C280DD10198BC
:105BD00080214902884208D19B48006880034FD544
:105BE000606800284CD1012095E26068802149025C
:105BF000884206D194480168802252020A4302601A
:105C00001FE06068A021C90288420BD18E4801685C
:105C10008022D2020A4302600168802252020A43B3
:105C200002600EE088480168BE4A0A4002600168CE
:105C3000802252021140049104990168BA4A0A4034
:105C40000260606800280DD0FFF760FF05007E4805
:105C50000068800314D4FFF759FF401B6528F6D372
:105C6000032058E2FFF752FF0500774800688003E1
:105C700006D5FFF74BFF401B6528F6D303204AE209
:105C8000207880076BD5E06803900298042805D03F
:105C900002980C2831D1019800282ED16A48016859
:105CA000490704D50399002901D1012033E2BC49F9
:105CB0000A68BC4B1340226912021A430A60016849
:105CC00009229143039A0A43026000F01DFBB64982
:105CD0005C4A126812091207120F895CC840B34966
:105CE0000860002001F0FEF96946087068460078F7
:105CF000002834D0684600780DE2039800281CD0B4
:105D0000514E306809218843039901433160FFF700
:105D1000FDFE05003068400706D4FFF7F7FE401B84
:105D20000328F7D30320F6E19D4801689D4A0A4005
:105D3000216909021143016011E0434E30680121DD
:105D400088433060FFF7E2FE05003068400706D563
:105D5000FFF7DCFE401B0328F7D30320DBE12078AC
:105D6000C00673D50298002834D1374800688005F2
:105D700004D5E069002801D10120CCE18848016800
:105D8000AC4A0A40616A1143016001680902090ACC
:105D9000226A12060A4302600120616A490B491C0B
:105DA00088408021090248437F49264A1268120927
:105DB0001207120F895CC8407C490860002001F07E
:105DC00091F9694608706846007800283ED0684618
:105DD0000078A0E1E069002821D01B4E30688021C6
:105DE000490001433160FFF791FE050030688005EE
:105DF00006D4FFF78BFE401B0328F7D303208AE16C
:105E0000674801688B4A0A40616A11430160016872
:105E10000902090A226A12060A43026016E00A4EC3
:105E20003068BE4901403160FFF770FE0500306800
:105E300080050BD5FFF76AFE401B0328F7D303202C
:105E400069E100BF0C1002400010024020780007FA
:105E500026D56069002811D0B14E30680121014378
:105E60003160FFF753FE05003068800718D4FFF754
:105E70004DFE401B0328F7D303204CE1A84E3068A9
:105E8000012188433060FFF741FE0500306880073C
:105E900006D5FFF73BFE401B0328F7D303203AE16A
:105EA0002078400700D48CE00020694648708020AC
:105EB00040059C4909680140002906D199490A68B2
:105EC00010430860012069464870974F802676008D
:105ED00038683040002810D1386830433860FFF708
:105EE00015FE050038683040002806D1FFF70EFE89
:105EF000401B6528F6D303200DE1A068B04204D111
:105F0000874801680E43066028E0A06800280DD18C
:105F100083480168814A0A4002600168834A0A4056
:105F200002601BE0FFFFFEFFFFFFFBFFA068A02158
:105F3000C900884209D17A4801688022D2000A4308
:105F4000026001680E43066008E075480168734A04
:105F50000A4002600168754A0A400260A068002891
:105F60000ED0FFF7D3FD05006D48006880051FD4F3
:105F7000FFF7CCFD401B6E498842F5D30320CAE0F1
:105F8000FFF7C4FD050066480068800510D5FFF7DF
:105F9000BDFD401B66498842F5D30320BBE000BF2E
:105FA00004100240FFE0FFFFD4870008000000203B
:105FB00068464078012804D15A4801685D4A0A4081
:105FC00002602078800637D5A06900281BD05A4E81
:105FD000012130680843306058480268114301606D
:105FE00057480168802292010A430260FFF78EFD44
:105FF0000500306880071FD4FFF788FD401B032889
:10600000F7D3032087E04C4E30680121884330608D
:106010004B4801684B4A0A400260FFF777FD0500D4
:106020003068800708D5FFF771FD401B0328F7D3C0
:10603000032070E0FF1FFFFFA06A00286AD00298CB
:106040000C2848D0A06A022833D1AA4F3868AA4940
:1060500001403960FFF75AFD04908026B604386885
:106060003040002807D0FFF751FD0499401A03285B
:10607000F3D303204FE0A2480168A04A0A40E16A36
:106080001143226B0A43616B114301603868802120
:10609000490401433960FFF739FD05003868304095
:1060A000002837D1FFF732FD401B0328F6D3032029
:1060B00031E0904E3068904901403160FFF726FD95
:1060C00005003068800125D5FFF720FD401B03281F
:1060D000F7D303201FE0A06A012801D101201AE0B4
:1060E0008748006801900198802149020840E16AD0
:1060F00088420DD10198F02189030140206B814233
:1061000006D10198C02109040140606B814201D091
:10611000012000E0002005B0F0BD00BFFFFEFFFF42
:10612000501002403810024000700040FFFBFFFF9B
:1061300089130000FFFFFFEF0810024034100240F7
:1061400020000140FFDFFFFFF3B581B00400002C09
:1061500001D10120CCE001256A4F3868284002991E
:1061600088420CD238680121884302990143396082
:10617000386828400299884201D00120B8E0207890
:10618000800706D55E480168F0229143A2680A4361
:1061900002602068284000286BD06068022805D182
:1061A00054480068800319D40120A1E060680328E6
:1061B00005D150480068800110D4012098E0606843
:1061C000012805D14B480068400707D401208FE023
:1061D00048480068800501D4012089E0484E3068B5
:1061E00003218843616801433160FFF78FFC009011
:1061F000606802280DD130680C210140082938D090
:10620000FFF784FC0099401A74498842F3D30320B5
:106210006EE0606803280DD130680C2101400C2924
:1062200027D0FFF773FC0099401A6C498842F3D3DA
:1062300003205DE0606801280DD130680C21014029
:10624000042916D0FFF762FC0099401A634988427E
:10625000F3D303204CE030680C210140002908D022
:10626000FFF754FC0099401A5C498842F3D303209D
:106270003EE002983968294088420CD238680121F2
:106280008843029901433960386805400298854285
:1062900001D001202CE02078400706D5184801687D
:1062A0004F4A0A40E168114301602078000707D592
:1062B000134801684B4A0A402169C9001143016033
:1062C00000F022F848490E4A126812091207120F0C
:1062D000895CC84045490860002000F003FF0100C8
:1062E0000800C0B2002802D00800C0B200E00020C0
:1062F000FEBD000000100240FFFFFFFEFFFF02FF97
:106300000C10024000200240F8B52D4807680C210F
:106310003940042904D008290AD00C290AD031E0D8
:1063200033480068C00601D5324800E0324836E004
:10633000324834E03249BA0C1207120F895C0C0063
:10634000B90D8907890F491C0D000068C00306D5E7
:106350002A486043290000F0EEFF060010E02448C0
:106360000068C00606D523486043290000F0E3FF1B
:10637000060005E020486043290000F0DCFF06002D
:1063800030000CE01F480068400B4007400F0090B1
:1063900001200099491C8840802109024843F2BD30
:1063A00012480068704780B5FFF7FAFF1649174A90
:1063B0001268120A5207520F895CC84002BD0000E1
:1063C0000C10024080B5FFF7EBFF0F490F4A12682F
:1063D000D20A5207520F895CC84002BD89130000DF
:1063E000FFF8FFFFFFC7FFFFD48700080000002071
:1063F0000010024000093D000024F40000127A0061
:106400002488000804100240648800080C10024030
:10641000FEB504002078800600D491E02078800644
:1064200000206946087080204005644909680140E1
:10643000002906D161490A681043086001206946B5
:10644000087080277F005E4D28683840002811D1F1
:10645000286838432860FFF759FB029028683840C5
:10646000002807D1FFF752FB0299401A6528F5D39F
:106470000320A2E053480068C021890301406068FE
:10648000C0229203024091420BD0C0208002626879
:106490000240824205D14B480068800301D50120AB
:1064A0008BE0494DC026B602286830400190019823
:1064B000002829D0019861683140884224D0207892
:1064C000800621D528684149014001912868802132
:1064D00009030143296028683D490140296001986A
:1064E000286001980740002F0ED0FFF70FFB0290A5
:1064F0002868800508D4FFF709FB0299401A35493E
:106500008842F5D3032058E060683040B04209D19A
:106510002C480168304A0A406168C0239B030B4045
:1065200013430360286861680E4006432E60684686
:106530000078012804D121480168284A0A400260F5
:106540002078C00706D52648016803229143A26837
:106550000A4302602078800706D5214801680C2292
:106560009143E2680A4302602078400706D51C4840
:1065700001681C4A0A402169114301602078000724
:1065800006D517480168184A0A406169114301603D
:106590002078400606D512480168144A0A40E1698D
:1065A000114301602078000606D50D480168104AA5
:1065B0000A40A169114301600020FEBD381002406D
:1065C000007000400010024050100240FFFFFCFF2E
:1065D000FFFFF7FF89130000FFFFCFFFFFFFFFEF73
:1065E0004C100240FFF3FFFFFFCFFFFFFFFFFFFB59
:1065F000FFFFF3FF10B50400002C01D101203DE0A6
:10660000607F002804D100202077200000F092FD58
:10661000022060772079002809D119482168486153
:1066200020688068182188432168886008E0E26853
:10663000A168200001F0F1F8002801D001201DE040
:106640006079002804D10020C0432168086102E07D
:106650002069216808612068806860218843616939
:106660000143206881602068806880218843A16997
:1066700001432068816001206077002010BD000088
:10668000B71DC104F3B581B00500170000200090CC
:106690000221697701262968896831432A68916057
:1066A000296A012913D020D3032901D016D31CE075
:1066B0000400BC4207D20298042161434058296873
:1066C0000860641CF5E72868006800900DE03A0057
:1066D0000299280000F00CF8009006E03A000299B8
:1066E000280000F05FF80090FFE76E770098FEBD8D
:1066F000F8B500249508AC4218D2042565434D5DD9
:106700002D06042666438E19767836042E4304251A
:1067100065434D19AD782D023543042666438E1925
:10672000F6782E4305682E60641CE3E703252A42B1
:1067300035D02E001640012E04D1042666438E5D0E
:1067400007683E702E001640022E0FD104266643C5
:106750008E5D360204276743CF197F783E436F462C
:106760003E80066833006E4636881E801540032D35
:1067700015D1042565434D5D2D02042666438E190F
:10678000767835436E46358005682B006D462D883A
:106790001D80042565434D19AD7806683570006885
:1067A0000068F2BDF0B500245508AC420ED20425B5
:1067B00065434D5B2D040226664302277E438E19F6
:1067C0007688354306683560641CEDE7D50705D546
:1067D00005682B00042565434D5B1D80006800683B
:1067E000F0BDFEE710B50400002C01D101205BE0F4
:1067F0004120205C002805D1002040216054200069
:1068000000F0A8FC24204121605420680068012188
:1068100088432168086060687E4901402068016102
:106820007D4821688968014022689160E1680129FA
:1068300006D1A168802212020A4321688A6005E01D
:10684000A168842212020A4321688A60E168022951
:1068500003D18021090122685160216849686F4A8B
:106860000A4321684A602168C96808402168C860F5
:10687000206961690143A069000208432168C8607A
:10688000E069216A014320680160206800680121F5
:106890000143206801600020606420214122A1544E
:1068A000206342216054002010BDFEB504000F009B
:1068B0004120205C202800D0A8E04020205C012856
:1068C00001D10220A3E0012040216054FFF71EF90E
:1068D000060000961923012280210902200000F001
:1068E000B9F8002801D0012091E021204121605415
:1068F000102042216054002565640198606268465A
:10690000008960856563608DFF280DD9FF20208593
:106910004348009080235B04228DD2B2390089B2B3
:10692000200000F05DF90CE0608D20853C4800906F
:1069300080239B04228DD2B2390089B2200000F05E
:106940004FF9608D002846D032000899200000F0F1
:10695000ADF8002801D0012059E0606A0078216874
:106960008862606A401C60622E48618D09186185EA
:10697000218D08182085608D0028E2D0208D002808
:10698000DFD10096089B00228021200000F062F8F1
:10699000002801D001203AE0608DFF280DD9FF20AA
:1069A00020850020009080235B04228DD2B2390024
:1069B00089B2200000F014F9C3E7608D2085002023
:1069C000009080239B04228DD2B2390089B220002E
:1069D00000F006F9B5E732000899200000F092F8BF
:1069E000002801D0012012E020202168C861216820
:1069F00049680D4A0A4021684A60412160542800D4
:106A00004221605440202554002000E00220FEBDB9
:106A100000000000FFFFFFF0FF7FFFFF008000028B
:106A200000200080FFFF000000E800FE00B50168C4
:106A30008969890702D500210268916201210268F3
:106A400092690A40002A04D10268926911430268DF
:106A5000916100BDF4B504000F001D00069E206882
:106A600080693840B84201D1012000E00020694629
:106A70000978884218D10020C0438542EFD0FFF743
:106A800045F8801B854201D3002DE8D12020616CA0
:106A90000143616441216054002001004222A1545D
:106AA00040216054012000E00020F2BD70B50400D8
:106AB0000D00160020688069800721D4320029006B
:106AC000200000F048F8002801D0012019E0002043
:106AD000C0438542EED0FFF719F8801B854201D3F1
:106AE000002DE7D12020616C014361644121605495
:106AF000002001004222A15440216054012000E006
:106B0000002070BDF8B505000E001700202428688D
:106B10008069204000281CD13A003100280000F094
:106B20001AF8002801D0012014E0FEF7EFFFC01B87
:106B3000864201D3002EE9D1686C2043686441206D
:106B40002C54002001004222A95440216854012005
:106B500000E00020F2BDF4B504000F00102520680D
:106B600080692840002839D020262068806930407C
:106B7000002818D10020C0438742F5D0FEF7C6FF99
:106B80000099401A874201D3002FEDD1606C304349
:106B9000606441202654002001004222A15440217B
:106BA000605401201BE02068C5612068C661200098
:106BB000FFF73CFF206840681549014020684160AC
:106BC000606C0421014361644120265400200100CF
:106BD0004222A15440216054012000E00020F2BD77
:106BE000F0B4049C05686D68660D0A4F3743BD43D9
:106BF0000E00B6B2B605B60D2E431500EDB22D044B
:106C000035431D43254306687560F0BC704700009E
:106C100000E800FEFF63FF0310B502004120105C96
:106C200020282AD14020105C012801D1022025E033
:106C300001200300402413552423412413551368D5
:106C40001B680124A3431468236013681B68244C49
:106C50001C4013681C6013681B680B431468236096
:106C600013681B6818431368186020204123D05410
:106C700000204023D054002000E0022010BD10B5B9
:106C800002004120105C202827D14020105C012800
:106C900001D1022022E001200300402413552423C7
:106CA0004124135513681B680124A343146823600F
:106CB00013681B680B4C1C400B02234314682360B1
:106CC0001468246820431468206020204124105553
:106CD000002040241055002000E0022010BD0000DC
:106CE000FFEFFFFFFFF0FFFF38B50400002C01D1DC
:106CF00001203FE0606A00280025A5625120205C49
:106D0000002805D1280050216054200000F058FAD6
:106D10000220512160542068006840218843216886
:106D200008606068A1680143E06808432169014385
:106D300060690843A1698022920011400143E06923
:106D40000843216A0143A06A084321680860A069DA
:106D5000000C04210840616A0143206841602068FA
:106D6000C069054901402068C16165650120512164
:106D70006054002032BD0000FFF7FFFFFFB585B073
:106D800004000E9F01260196002528006946087020
:106D9000E068002806D1E068002803D16846008C2E
:106DA0000228FFD35020205C012801D1022016E1E7
:106DB000300050216054FEF7A9FE03905120205C62
:106DC00069464870606804906846008C694648804F
:106DD0006846407801280FD00498822149008842F3
:106DE00006D1A068002803D168464078042803D063
:106DF000022069460870ECE00698002806D0079843
:106E0000002803D06846008C002803D13000694672
:106E10000870DEE05120205C042802D005205121BA
:106E2000605465650798A0636846008CE0876846F3
:106E3000008CA087069820636846008CE086684630
:106E4000008CA086256465644020216809680140A3
:106E5000002904D121680968084321680860E068B6
:106E60008021090188424DD16068002803D068461E
:106E70004088012809D1206B00882168C860206BF8
:106E8000801C2063E08E401EE086E08E002803D147
:106E9000E08F002800D184E020688068800710D54A
:106EA000E08E00280DD0019801280AD1206B0088BF
:106EB0002168C860206B801C2063E08E401EE08645
:106EC000019520688068304000280DD0E08F0028B0
:106ED0000AD02068C068A16B0880A06B801CA063EA
:106EE000E08F401EE0870196FEF710FE0399401ADE
:106EF000B842CAD30020C0438742C6D003206946A7
:106F0000087066E06068002803D068464088012861
:106F100009D1206B007821680873206B401C206326
:106F2000E08E401EE086E08E002802D1E08F00282F
:106F300037D020688068800710D5E08E00280DD0FB
:106F4000019801280AD1206B007821680873206B12
:106F5000401C2063E08E401EE0860195206880681A
:106F6000304000280DD0E08F00280AD02068C0688B
:106F7000A16B0870A06B401CA063E08F401EE087EF
:106F80000196FEF7C3FD0399401AB84203D30020CF
:106F9000C043874201D1002FC5D103206946087044
:106FA00017E0039A3900200000F06DF8002805D0A2
:106FB000300069460870202060650AE0A06800285B
:106FC00007D102952068C06802902068806802900E
:106FD000029851202654502025546846007809B064
:106FE000F0BDF4B504000F001D00069E2068806807
:106FF0003840B84201D1012000E0002069460978FC
:1070000088423DD00020C0438542EFD0FEF77EFD90
:10701000801BA84201D2002DE8D120684068E02101
:1070200088432168486060688221490088420FD106
:10703000A06880210902884204D0A0688021C9008C
:10704000884205D120680068402188432168086093
:1070500080208001A16A81420AD121680968204A02
:107060000A4021680A6021680968084321680860AD
:10707000012051216054002050216054032000E081
:107080000020F2BD00007CB504000E001500606811
:107090008221490088420ED10095330000228021D0
:1070A0002000FFF79EFF002818D0606D20210143CB
:1070B0006165032013E05120205C05280ED1009566
:1070C0003300002201212000FFF78BFF002805D0AC
:1070D000606D202101436165032000E0002076BD42
:1070E000FFDFFFFF38B5050000240B480068FA21D8
:1070F000890000F020F900F034FC002802D00120C3
:10710000040005E0002229000020C04300F01FFC1D
:107110002000C0B232BD00BF000000206D480168F1
:1071200001220A4302606C480168802252050A432A
:107130000260704780B50168684A914209D1802198
:107140004901674A13680B431360126811400091AC
:10715000009901BD10B586B004001422002101A8D9
:1071600000F010FC20685F4988421BD102205E4974
:107170000A6802430A600968084000900098C0202D
:1071800001901220029001200390032104910590A8
:1071900001A95648FEF792FB4F48016880229203EE
:1071A0000A43026006B010BD00B50168504A914222
:1071B00005D150490A688023DB0213430B6000BDF0
:1071C000F8B586B0070014220021684600F0DAFB0B
:1071D0003868494988422BD13E48016880225201D3
:1071E0000A430260012440480168214301600068AD
:1071F000204005900598F020009002200190002585
:107200000295032003900495A026F60569463000F8
:10721000FEF754FB102000900194029503956946F7
:107220003000FEF74BFB012210213000FEF744FC3A
:1072300007B0F0BD10B586B00400142200216846E6
:1072400000F0A0FB20682D4988421FD12148016829
:107250008022D2010A430260012023490A680243C6
:107260000A600968084005900598C020C000009099
:10727000022001900020029003200390042004903B
:107280006946A020C005FEF719FB21E020681C49D3
:1072900088421DD110480168802292020A43026090
:1072A000012011490A6802430A60096808400590F4
:1072B00005980C20009002200190002002900320ED
:1072C0000390042004906946A020C005FEF7F6FA5A
:1072D00006B010BD341002403810024000300240A9
:1072E00030100240005400402C10024000040050B6
:1072F000002800405010024000300140003801409A
:1073000000440040F446002804D4494200F013F839
:10731000404260474042002905D45FD000F00BF89E
:10732000404249426047494200F005F849426047FF
:1073300003460B43E6D40022030A8B420BD2030917
:107340008B4219D243088B422ED2411A00D20146F9
:10735000524110467047FF2209023FD012068B426D
:1073600005D3121209028B4201D31212090203093A
:107370008B4219D300E0090AC3098B4201D3CB0128
:10738000C01A524183098B4201D38B01C01A52416A
:1073900043098B4201D34B01C01A524103098B426E
:1073A00001D30B01C01A5241C3088B4201D3CB0059
:1073B000C01A524183088B4201D38B00C01A52413C
:1073C00043088B4201D34B00C01A5241884200D37C
:1073D000401A5241CFD201461046704708B500F01E
:1073E000DBFA08BDF3B587B001210024220001AD0E
:1073F0002800FEF7A9FB0F252900220002AC20007F
:10740000FEF7A2FBA026F605002210213000FEF7B1
:1074100053FBCD4C32200090012302AA01A9200089
:10742000FFF7ACFC07003220009008A80078054068
:107430002B009BB202AA07992000FFF79FFC0400D3
:107440003C43012210213000FEF736FB0A20FDF7F5
:107450001DF82000C0B209B0F0BDFEB501A8401C67
:10746000BA490A780270012529000024220001AEE1
:107470003000FEF769FB2600A027FF05002210213F
:107480003800FEF719FB68460079082816D020005E
:10749000C0B2FE2812DA641C32200090012301AA37
:1074A00001A9491CA848FFF769FC3043060068465B
:1074B00000790821084069460871E4E7012210219B
:1074C0003800FEF7F9FA0A20FCF7E0FF2000C0B20E
:1074D000FE2800DB2E003000C0B2FEBDF0B587B044
:1074E000040002A8401C9A490A7802700F270097EE
:1074F000002203AD00992800FEF726FBA026F60522
:10750000002210213000FEF7D7FA8F4D3220009074
:10751000012303AA02A9491C2800FFF72FFC694692
:1075200008726846017A01913220009002232200FD
:1075300003A92800FFF722FC019908436946087255
:107540002078802814D16078002811D06846017A0C
:10755000019132200090607807403B009BB2A21C52
:1075600003A92800FFF70AFC01990843694608723D
:10757000012210213000FEF79FFA0A20FCF786FF57
:107580006846007A07B0F0BD30B589B068467149E9
:107590000A7802701E210024220001AD2800FEF7A7
:1075A000D3FA012501216846FFF71CFF00280DD101
:1075B000FFF753FF002809D101A8FFF78FFF00282C
:1075C00004D168460079552800D125002800C0B2B2
:1075D00009B030BD18B5C1B068465F490A6802609D
:1075E00001A85E4980225200FDF718FD0124042104
:1075F0006846FFF7F7FE002811D1FFF72EFF00289D
:107600000DD101A8FFF76AFF002808D101A8017871
:10761000002904D14078002801D100200400200076
:10762000C0B242B010BD10B504002000C0B20128A5
:1076300002D1FFF7CFFF00E0012010BDF3B58BB002
:1076400014001E21002202AD2800FEF77DFA8E26CE
:107650000CA801780B98FFF7C5FE002845D1FFF76D
:10766000FCFE002841D102A8FFF738FF00283CD1DA
:1076700002AD287820702078802834D168780428DA
:1076800033DB6878C01E60706078019002A8801CAF
:107690000090A71C019A00993800FDF7D9FC60788A
:1076A00028188078FC21605460782818C078FD2163
:1076B0006054607828180079FE216054FD20205C19
:1076C000802149004843FC21615C45186178A01C79
:1076D00000F02CF82900020009B212B2914204D144
:1076E00021780E0001E0207806003000C0B20DB015
:1076F000F0BDF1B5C2B0684619490CC90CC00839D3
:10770000083802AA05216846FFF798FF04000825FB
:1077100002A841784618B61F429F2A00310038005F
:10772000FDF796FC2000C0B243B0F0BD38B50500AF
:107730000C002200D2B229000A48FEF7A3FF010084
:107740000948484080B232BDE00A00208C88000819
:107750008D8800088E8800086C8800080484000862
:107760005C880008840B0020FFFF000030B4434316
:1077700051435D18010C0C00130C5C432D1980B2B1
:10778000434392B251430024C918644124040B04BA
:10779000090C09195043C018694130BC70471242A6
:1077A00024D0994228D970B500251B4202D00C0084
:1077B000002109E00024012649186441944200D3C5
:1077C000A41A7641F8D33100012601E0764109D2AE
:1077D000001864416D41A41A9D41F7D2A4185D417F
:1077E000B619F5D3300022002B0070BD1B42D8D152
:1077F00008B500F0D3F808BD01D19042D3D2020001
:107800000B00002100207047C9B202788A4203D0E1
:10781000401C002AF9D100207047F0B50300002079
:107820001F252C002600741E002E06D027002E00D7
:107830003E400F00F740FE07F4D51500002D14D090
:10784000082D0DD0102D06D0182D0FD1072C01D3E7
:10785000012528000CE0082C01D30125280007E0B1
:10786000102C01D30125280002E001E001252800A9
:107870000500EDB2002D08D11D6869611D68AD6875
:107880001826B54315431E68B560C0B2F0BDFEE7CB
:10789000F0B5020052B2002A23D503220F24344B44
:1078A00005006DB22540083DAD080426754306006D
:1078B00076B23440083CA408042674431E59FF27BE
:1078C000BC461400044008277C436746A740BE43DB
:1078D0008C01E4B2024008277A43944034435C515F
:1078E0001BE0244A0323040064B2A40804256C436B
:1078F0001459FF251E00064008277E43B540AC43BF
:107900008D01EDB20340082673439D4025430300DB
:107910005BB29B0804246343D550F0BD10B504004E
:10792000601E80214904884201D301200EE0601EC0
:107930001149086003210020C043FFF7A9FF002080
:107940000E49086007200E490860002010BD70B580
:1079500005000C0016002100280040B2FFF798FF38
:1079600070BD10B504002000FFF7D8FF10BD000067
:107970001CED00E000E400E014E000E018E000E0AE
:1079800010E000E010B50400080011000200200023
:10799000FEF7DAF8200010BD7047FEE77047FEE7FB
:1079A00000000000000000000000000000000000D7
:1079B0000000000000001FCC000C000000000000D0
:1079C0000000080030006000080030006000000087
:1079D000022003FC1E20022003FC1E2002200000C7
:1079E00000000E1811043FFF10840C780000000006
:1079F0000F0010840F3800C007781884007800004A
:107A000000780F8410C411240E9800E4008400084C
:107A10000800680070000000000000000000000086
:107A200000000000000007E01818200440020000D9
:107A3000000040022004181807E0000000000000C9
:107A40000240024001800FF001800240024000002D
:107A50000080008000800FF800800080008000001F
:107A60000001000D000E00000000000000000000FA
:107A70000000008000800080008000800080008086
:107A80000000000C000C00000000000000000000DE
:107A900000000006001800600180060018002000A9
:107AA000000007F0080810041004080807F00000A0
:107AB0000000080408041FFC00040004000000008B
:107AC00000000E0C10141024104411840E0C000041
:107AD00000000C1810041104110412880C7000002E
:107AE000000000E00320042408241FFC0024000000
:107AF00000001F98108411041104108810700000F9
:107B0000000007F0088811041104188800700000B4
:107B100000001C00100010FC13001C0010000000EE
:107B200000000E3811441084108411440E380000F7
:107B300000000700088C10441044088807F000007B
:107B4000000000000000030C030C00000000000017
:107B5000000000000001010600000000000000001D
:107B600000000080014002200410080810040000FA
:107B70000220022002200220022002200220000017
:107B800000001004080804100220014000800000DA
:107B900000000E001200100C106C10800F0000008E
:107BA00003E00C1813E4142417C4082807D00000BD
:107BB0000004003C03C41C40074000E4001C000417
:107BC00010041FFC1104110411040E880070000041
:107BD00003E00C1810041004100410081C1000001E
:107BE00010041FFC100410041004080807F0000023
:107BF00010041FFC1104110417C41004081800001D
:107C000010041FFC1104110017C010000800000030
:107C100003E00C181004100410441C78004000000D
:107C200010041FFC10840080008010841FFC1004CE
:107C30000000100410041FFC1004100400000000D9
:107C400000030001100110011FFE100010000000D1
:107C500010041FFC110403801464181C100400009D
:107C600010041FFC1004000400040004000C0000B9
:107C700010041FFC1F0000FC1F001FFC100400006C
:107C800010041FFC0C04030000E010181FFC10007F
:107C900007F00808100410041004080807F000009A
:107CA00010041FFC10841080108010800F00000052
:107CB00007F0081810241024101C080A07F200000E
:107CC00010041FFC1104110011C011300E0C00042F
:107CD00000000E1C11041084108410441C38000095
:107CE0001800100010041FFC100410001800000001
:107CF00010001FF810040004000410041FF8100006
:107D000010001E0011E0001C007013801C00100009
:107D10001FC0103C00E01F0000E0103C1FC000002E
:107D20001004180C163401C001C01634180C1004CD
:107D300010001C00130400FC13041C0010000000C1
:107D40000804101C1064108413041C041018000094
:107D50000000000000007FFE4002400240020000E0
:107D6000000030000C0003800060001C00030000D5
:107D700000004002400240027FFE000000000000C0
:107D800000000000200040004000400020000000F3
:107D900000010001000100010001000100010001DB
:107DA0000000400040002000000000000000000033
:107DB00000000098012401440144014400FC000437
:107DC00010001FFC008801040104008800700000FE
:107DD0000000007000880104010401040088000014
:107DE0000000007000880104010411081FFC000459
:107DF000000000F8014401440144014400C80000AF
:107E00000000010401040FFC11041104110018000A
:107E1000000000D601290129012901C9010600003D
:107E200010041FFC008401000100010400FC000498
:107E300000000104190419FC000400040000000003
:107E40000000000300010101190119FE00000000FB
:107E500010041FFC0024004001B4010C01040000C8
:107E60000000100410041FFC0004000400000000C7
:107E7000010401FC0104010001FC0104010000FCFB
:107E8000010401FC008401000100010400FC000465
:107E9000000000F8010401040104010400F80000DE
:107EA000010101FF00850104010400880070000049
:107EB00000000070008801040104010501FF0001B9
:107EC0000104010401FC00840104010001800000A0
:107ED000000000CC012401240124012401980000A9
:107EE00000000100010007F8010401040000000087
:107EF000010001F8000400040004010801FC000472
:107F0000010001800170000C00100160018001007F
:107F100001F0010C003001C00030010C01F0010043
:107F200000000104018C00740170018C0104000048
:107F3000010101810171000E001801600180010042
:107F400000000184010C013401440184010C000093
:107F5000000000000000000001003EFC4002400262
:107F60000000000000000000FFFF00000000000013
:107F70000000400240023EFC010000000000000042
:107F800000006000800080004000400020002000D1
:107F900000000000000000000000000000000000E1
:107FA0003F400000000000000000300040003000B2
:107FB0004000000009000BC03D000BC03D0009005F
:107FC00018C024407FE0224031800000180024C007
:107FD0001B000D803240018003801C4027401C8024
:107FE000074000401000600000000000000000009A
:107FF0000000000000001F802040402000004020C2
:1080000020401F8000000000090006001F800600BD
:1080100009000000040004003F8004000400000088
:1080200000100060000000000000000004000400D8
:1080300004000400040000000000004000000000F4
:1080400000000000002001C00600380040000000D1
:108050001F802040204020401F8000000000104072
:108060003FC000400000000018C0214022402440D2
:108070001840000010802040244024401B80000055
:1080800002000D0011003FC0014000003C80244070
:1080900024402440238000001F802440244034409A
:1080A000038000003000200027C0380020000000BE
:1080B0001B802440244024401B8000001C0022C060
:1080C000224022401F800000000000000840000005
:1080D000000000000000000004600000000000003C
:1080E000000004000A00110020804040090009003F
:1080F0000900090009000000000040402080110034
:108100000A0004001800200023402400180000008A
:108110001F802040274029401F400000004007C02A
:1081200039000F0001C0004020403FC024402440DF
:108130001B8000001F802040204020403080000035
:1081400020403FC0204020401F80000020403FC012
:1081500024402E4030C0000020403FC024402E006C
:10816000300000000F0010802040224033800200C9
:1081700020403FC0040004003FC020402040204079
:108180003FC02040204000000060202020203FC051
:108190002000200020403FC024400B0030C0204081
:1081A00020403FC020400040004000C03FC03C0095
:1081B00003C03C003FC0000020403FC00C402300F3
:1081C0003FC020001F802040204020401F80000032
:1081D00020403FC024402400180000001F802140A0
:1081E000214020E01FA0000020403FC02440260086
:1081F00019C0004018C024402440224031800000B3
:10820000300020403FC020403000000020003F8070
:10821000004000403F80200020003E0001C00700D9
:1082200038002000380007C03C0007C038000000BC
:10823000204039C0060039C02040000020003840EE
:1082400007C0384020000000304021C026403840A0
:1082500020C00000000000007FE04020402000001F
:10826000000070000C00038000400000000040206F
:1082700040207FE0000000000000200040002000BF
:10828000000000000010001000100010001000108E
:10829000000000004000000000000000000002801C
:1082A0000540054003C0004020003FC0044004409A
:1082B00003800000000003800440044006400000EA
:1082C00000000380044024403FC0004000000380C1
:1082D0000540054003400000000004401FC024404A
:1082E00024402000000002E0055005500650042004
:1082F00020403FC00440040003C000400000044090
:1083000027C000400000000000100010041027E00B
:108310000000000020403FC00140070004C00440AE
:10832000204020403FC000400040000007C0040043
:1083300007C0040003C00000044007C0044004005C
:1083400003C000400000038004400440038000009C
:10835000041007F004500440038000000000038074
:108360000440045007F00010044007C0024004001D
:1083700004000000000006400540054004C0000065
:10838000000004001F80044000400000040007803B
:108390000040044007C000400400070004C0018002
:1083A00006000400060001C0070001C0060000002E
:1083B000044006C0010006C004400000041007107D
:1083C00004E00180060004000000044005C00640EF
:1083D000044000000000000004007BE0402000009A
:1083E000000000000000FFF000000000000040203E
:1083F0007BE00400000000004000800040002000FE
:1084000020004000FFFF000000000000000000000E
:10841000000000000000000000000000000000005C
:10842000000000000000000000000000000000004C
:10843000000000000000000000000000000000003C
:10844000000000000000000000000000000000002C
:10845000000000000000000000000000000000001C
:10846000000000000000000000000000000000000C
:1084700000000000000000000000000000000000FC
:1084800000000000000000000000000000000000EC
:1084900000000000000000000000000000000000DC
:1084A00000000000000000000000000000000000CC
:1084B00000000000000000000000000000000000BC
:1084C00000000000000000000000000000000000AC
:1084D000000000000000000000000000000000009C
:1084E000000000000000000000000000000000008C
:1084F000000000000000000000000000000000007C
:108500000000000010B412480168802252000A43A3
:10851000026010490A68104B13400B6002680F4B51
:10852000134003600E4A13680124A34313600268DA
:108530000C4B1340036008680B4A02400A6000209D
:108540000A490860802000050949086010BC70478E
:10855000001002400C1002400C40FF88F6FFF6FEAF
:1085600008100240FFFFFBFFFFFF02FF1010024058
:1085700008ED00E041542B48545450504152413DC5
:108580002255524C222C22687474703A2F2F6E663A
:10859000636170692E636F6E656B2E6E65742F63F9
:1085A0006F6E656B2F64756C6965756469656D6464
:1085B000616E683F7569645461673D0000000000AA
:1085C00000000000000000000000000000000000AB
:1085D000000000000000000041542B48545450504B
:1085E0004152413D2255524C222C22687474703AFB
:1085F0002F2F6E66636170692E636F6E656B2E6ED2
:1086000065742F636F6E656B2F6163746976657334
:10861000696D220000000000000000000000000062
:10862000000000000000000000000000000000004A
:1086300000000000000000000000000070B40123F2
:10864000002413E00168001D194202D04D466D1E42
:1086500049190C60091D121F042AFAD20D00960751
:1086600001D50C80AD1C1A4000D02C700268001D92
:10867000002AE7D170BC704730B401220EE00368D5
:10868000C31844680830144202D04D466D1E641968
:108690001D6825601B1D241D091FF9D10168001DDF
:1086A0000029ECD130BC704710B507497944183126
:1086B000064C7C44163404E0081D0A688918884773
:1086C0000100A142F8D110BD080000002800000000
:1086D0006DFFFFFF140C00000400002000000000EC
:1086E00099FFFFFF04000000880100000000002047
:1086F0000000000041542B53415042523D332C3175
:108700002C22436F6E74797065222C22475052538D
:108710002200000041542B53415042523D332C3132
:108720002C2241504E222C22652D636F6E6E6563A4
:108730007422000000F00DF8002801D0FFF7B4FF0C
:1087400000BF00BF002000BF00BFFBF7D9F800F05A
:1087500002F80120704780B500F002F801BDFEE785
:108760000746384600F002F8FBE7FEE780B500BF99
:1087700000BF024A11001820ABBEFBE72600020032
:10878000704700B5FEE77047704780B500F002F80B
:1087900001BDFEE702480168491C0160704700BF47
:1087A0000C0C00205374617274204661696C65641E
:1087B0000000000041542B48545450414354494F49
:1087C0004E3D300041542B53415042523D312C31EB
:1087D000000000000000000000000000010203048F
:1087E0000607080901488047014800470585000839
:1087F00031880008436F6E6E656374696E670000B0
:1088000053656E64696E672E2E2E000052652D43EF
:108810006865636B0000000041542B485454504974
:108820004E495400030406080C10182030000000C4
:1088300000BF00BF00BF00BFFFF77CFF436F6E6546
:108840006B00000041542B4347534E0057656C6347
:108850006F6D6500537563636573730004032601D0
:108860000000000000000000010203040202010DEC
:1088700000002000FEE7FEE7FEE7FEE7FEE7FEE77A
:0F888000FEE7FEE7FEE7FEE7FEE7FEE703025531
:040000050800883136
:00000001FF
