:020000040800F2
:10000000980F002059860008F5850008F78500083C
:1000100000000000000000000000000000000000E0
:10002000000000000000000000000000FB85000848
:100030000000000000000000FD850008FF850008AA
:10004000D7440008274500087F5A0008BB5A00081B
:100050000B5B0008C36B000803770008FB77000800
:10006000FF770008BF850008CB85000807860008D9
:10007000E9860008EB86000800000000ED86000815
:1000800000000000EF8600080000000000000000F3
:10009000F186000800000000F3860008F5860008DD
:1000A000F7860008F9860008FB860008FD86000830
:1000B000FF86000801870008000000000387000891
:1000C000000000000000001000000003FFC000005E
:1000D0001E0038000070F0040000C0F8010001802C
:1000E000F800000300F8000006007F00000C007F0D
:1000F00080001800FFE0001800E0F0003000E06031
:10010000003001E000003007E0000060EF800000F8
:1001100061FE00000061FE00000061FE0000006062
:10012000EE000000600F0000007007C0000030010A
:10013000E000003000E000003800E000001800F0AF
:1001400070001C00F5E0000E003FC0000600FF003C
:10015000000701F0000003C1F8000000E1F0010019
:100160000078600600001F0018000007FFE0000094
:1001700000FE000000000000000000000000000081
:10018000000000000000000000000000000000006F
:10019000000000000000000000000000000000005F
:1001A000000000000000000000000000000000004F
:1001B000000000000000000000000000000000003F
:10390000F0B5B3B000273800380038001AA8CE4907
:10391000642200F0E1FD01A8CC49642200F0DCFD46
:1039200000F002FE00F057FC00F076FDC84800F001
:1039300011FE00F0A7FC00F0C0FC00F0E5FC00F078
:1039400050FD00F017FE002000F05DFE28200090E2
:103950002823C04A0C21002000F07CFF01200090A9
:103960001023BD4A0821322000F034FF00F020FE71
:10397000012000900C23D24A1721282000F02AFFB2
:10398000012000901023CFA22321372000F022FF36
:1039900000F00EFECC4800F0A3FB0A2000F0DAFD98
:1039A00000F0C4F9040005E00C23C84A2A211920BC
:1039B00000F06EFA2000C0B20028F5D038000AE00E
:1039C000C3490200D2B28918C97A3039C14A03000A
:1039D000DBB2D154401C0100C9B20F29F0DB102327
:1039E000BD4A3221192000F053FA00F0DDFC380006
:1039F000BA490870642000F0ADFD00F0B7FB642008
:103A000000F0A8FDFDE0B648016809684022914336
:103A100000680160B34C2068006801210143206800
:103A200001600A2000F096FD1023AF4A2D211920D5
:103A300000F02EFAAD4DAEA62A00310001A800F02C
:103A40006BFA0A2000F086FD2A003100A94800F038
:103A500063FA002806D0642000F07CFDA649A7A0E8
:103A600000F0D8FA0A2000F075FD38009B49087074
:103A70001023994A3221192000F00AFAA04800F0D8
:103A80003DFAA04800F03AFA9F4800F037FA9F4804
:103A900000F034FA00F06AFB2068006801218843D6
:103AA0002168086078E0FA239B00012294482100F5
:103AB000C9B241188B4800F0C5FF641C2000C0B299
:103AC0001028F0DB8AA4924A210092A000F024FA88
:103AD000002809D00120009010237AA228213C2040
:103AE00000F078FE00F064FD052000F033FD7F4A11
:103AF0002100804800F010FA002800D1D1E06420B5
:103B000000F028FD7C497DA000F084FA002800D157
:103B1000C7E01023804A3221192000F0B9F93D0096
:103B2000EDB2002D08D010237C4A2F21192000F07F
:103B3000AFF97B4800F00EFD1023674A32211920AF
:103B400000F0A6F9A025ED058024640001222100E3
:103B5000280001F033FC9620400000F0FBFC00221E
:103B60002100280001F02AFC38005C4908706448F4
:103B700000F0C4F9634800F0C1F9634800F0BEF9F1
:103B8000624800F0BBF900F0F1FA56480168096894
:103B90000122914300680160624D634C00222100C4
:103BA000280001F017FD0022B849280001F0C8FDE7
:103BB000A07861780A00D2B2012A03D10200D2B201
:103BC000042A05DBC9B21E2905D1C0B2042802DAD5
:103BD000042042490870A024E405012202212000AB
:103BE00001F0ECFB642000F0B5FC00220221200073
:103BF00001F0E4FB3A480168096840220A43006882
:103C000002603D0035480078002802D0012849D0E4
:103C1000F9E601F019FE002842D1012001F00FFE63
:103C200000283DD1B44D280001F012FE802837D184
:103C30003800E871324C2100280001F07BFE00289A
:103C400018D1380012E000BFD4830008388400087F
:103C5000581B0000C0000008B08600080100C9B26F
:103C6000615C30310200D2B2A154401C0100C9B2E3
:103C70001029F3DB1A480168096840229143006863
:103C80000160012417480168096821430068016048
:103C90001023154A2D21192000F0FAF80F4804705E
:103CA0007AE76D1C2800C0B2052800DB38E70A203F
:103CB00000F050FC1AA800F011F93C00FEE600BF2D
:103CC000688600082E000000B886000818860008E4
:103CD000EC070020700B0020C0860008920B00202B
:103CE000600A0020E009002074860008B80B00007C
:103CF0004F4B0000288600081027000032303000AB
:103D0000600B002004040020900B0020F805002028
:103D10008813000022000000C88600088086000882
:103D2000DC050000280B00204C0B00207CB5002097
:103D300000F069FC282000902823AD4A0C210020C7
:103D400000F088FD012000901023AA4A08213220AB
:103D500000F040FD012000900C23A74A17212820E5
:103D600000F038FDA5A4012000901023220023219B
:103D7000372000F02FFD00F01BFCA1A6A14D2A006A
:103D80003100A1A000F0C8F800287CD001200090EC
:103D90001023220023213C2000F01CFD00F008FC31
:103DA0000A2000F0D7FB2A003100984800F0B4F850
:103DB000002866D0012000901023220023214120FA
:103DC00000F008FD00F0F4FB0A2000F0C3FB2A001D
:103DD00031008F4800F0A0F8002850D0012000905A
:103DE000102322002321462000F0F4FC00F0E0FB29
:103DF0000A2000F0AFFB2A003100B74800F08CF831
:103E000000283AD0012000901023220023214B20CB
:103E100000F0E0FC00F0CCFB0A2000F09BFB2A0045
:103E20003100AE4800F078F8002824D0012000903E
:103E3000102322002321502000F0CCFC00F0B8FB1E
:103E40000A2000F087FB2A003100C44800F064F823
:103E500000280ED0012000901023220023215020A2
:103E600000F0B8FC00F0A4FB0A2000F073FB012076
:103E70000AE0002008E0002006E0002004E0002026
:103E800002E0002000E0002076BD0000880B00204A
:103E9000F8B507000E0015001C00002000F0B3FB71
:103EA000282000902823524A0C21002000F0D2FC48
:103EB0000120009010234F4A02213E2000F08AFC8E
:103EC000012000902300DBB22A003900C9B2300083
:103ED000C0B200F07FFC00F06BFBF1BD10B5040038
:103EE000200001F0C5FD0200FA239B0092B22100E0
:103EF0009B4800F0A7FD10BD800B002010B504000A
:103F0000200001F0B5FD0022110002E0130063540F
:103F1000491C8142FADB10BDF7B582B000270024AE
:103F2000D748FFF7EBFF01F0ABFD009001F0A8FDD3
:103F30000600029801F09CFDFA239B00020092B259
:103F40000299874800F07EFDFA239B00022285A19A
:103F5000834800F077FDFA239B00012282498048C4
:103F600000F0E9FD002808D001F08AFD0099401A10
:103F700004998142EFD2002038E001F081FD0090E9
:103F800079480078BE492200D2B28854641C08E007
:103F90002878BB492200D2B28854641C01F070FD1D
:103FA000060001F06DFD0099401A0499884217D26D
:103FB0006D4DFA239B0001222900694800F0BBFDEA
:103FC0000028E5D001F05CFD801B6528E9D303994A
:103FD000AB4801F05BFD002801D0012700E000277D
:103FE0003800C0B20028B6D0380040B205B0F0BDED
:103FF000C0000008B0860008688600082E00000097
:104000004F4B000010270000415400005485000869
:1040100074850008F3B581B0002700249848FFF7A5
:104020006DFF01F02DFD009001F02AFD0600FA233E
:104030009B0001224C494A4800F07DFD002808D031
:1040400001F01EFD0099401A02998142EFD2002032
:1040500041E001F015FD00904348007888492200B6
:10406000D2B28854641C08E0287885492200D2B274
:104070008854641C01F004FD060001F001FD009964
:10408000401A0299884217D2374DFA239B00012229
:104090002900334800F04FFD0028E5D001F0F0FC86
:1040A000801B6528E9D30199754801F0EFFC0028D1
:1040B00001D0012700E000273800C0B20028B6D0A8
:1040C000FA23DB000122B749254800F034FD00281F
:1040D000F6D0380040B2FEBD388600088C86000855
:1040E000F8B50600002468460470CA48FFF706FFCA
:1040F000300001F0BDFC0200194FFA25AD002B0085
:1041000092B23100380000F09DFC2B00022215A174
:10411000380000F097FCA34DFA26F6003300012288
:104120002900380000F007FD002806D1287830303B
:10413000B8492200D2B28854641C2000C0B21F28A3
:10414000E9DB330001222900380000F0F4FC0028EC
:10415000F7D06846007840B2F2BD0000E085000864
:10416000E00900200D0A0000900B002030B585B05A
:10417000142100252A006C46200001F09FFCA02499
:10418000E40500220421200001F018F90420009029
:10419000012001900295022003906946200001F061
:1041A00013F801220421200001F008F9962000F004
:1041B000D1F900220421200001F000F9962000F03E
:1041C000C9F901220421200001F0F8F8962000F03E
:1041D000C1F905B030BD30B59BB0382100242200B4
:1041E0000DAD280001F06AFC142122006D46280064
:1041F00001F064FC2021220005AD280001F05EFCE6
:10420000A3480168A34A0A408021090111430160C3
:104210000A200D900120109010211191129002207F
:10422000179018948020C00219908020C0031A9023
:104230000DA801F06BFC002801D000F04BF90F2015
:104240000090032001900294039404940121684695
:1042500001F018FF002801D000F03CF92B20059058
:10426000079408940A9480208002069005A802F022
:104270005FF8002801D000F02DF91BB030BD000020
:104280000404002080B584488449016001210A00AB
:104290000271834A82600822C2600A004271814A28
:1042A00002612022426180228261016202F024F9CF
:1042B000002801D000F00EF901BD10B57A4C7B4802
:1042C00020607B4860600020A0600121E1602061E7
:1042D0006061A061E0612062200002F0EBF900283B
:1042E00001D000F0F7F80021200002F0FDFB0028CB
:1042F00001D000F0EFF80021200002F027FC002898
:1043000001D000F0E7F810BD38B586B014210024C4
:10431000220001AD280001F0D1FB042122006D46EE
:10432000280001F0CBFB634D634828606C607F2060
:10433000A860FF20E8602C616C61AC61EC61280032
:1043400001F04EF8002801D000F0C4F801A82100C7
:1043500001702100417021008170049405940022B5
:1043600001A9280001F0ACF8002801D000F0B2F853
:104370000120694602000A7002004A708870CC7001
:1043800000226946280001F055F9002801D000F00C
:10439000A1F84A4A0021C943280002F00BFC07B0EB
:1043A00030BD0000F805002080B545484549016052
:1043B00082214900416000218160C1600161416149
:1043C0008022920082611822C26101624162816290
:1043D0000721C16202F0F6FB002801D000F07AF854
:1043E00001BD80B538483949016096218901416095
:1043F00000218160C16001610C2242618161C16163
:104400000162416200F0DEFA002801D000F062F89B
:1044100001BD0000EC070020F0B585B004212C4858
:1044200002680A4302600268114000910099012568
:104430000168294301600168294000910099022424
:104440000168214301600068204000900098142119
:10445000002632006F46380001F030FBA027FF0530
:10446000002281214900380000F0A8FF812040008F
:1044700000900195029603946946380000F0A4FE6E
:10448000002281214900380000F098FF05B0F0BDFE
:1044900000700040FFE7FFFF040B002000300240E7
:1044A00021100000FFFF0000B80A00200054004067
:1044B000BB7C7000280B002000280040F232000076
:1044C000600A002000300140E0090020003801406F
:1044D0002C1002407047FEE770B4103A03D378C93D
:1044E000103A78C0FBD2530701D318C918C001D5C0
:1044F00008C908C0D20704D30B880380891C801C1C
:10450000002A01D50B78037070BC70478B0701D16E
:104510008307E1D0124205D00B78491C0370401C80
:10452000521EF9D17047FEE710B500240848016813
:1045300040220A430260002002F02CFD002801D036
:10454000012401E002F040FD2000C0B210BD0000D7
:104550000020024038B5050001F092FA0400002066
:10456000C043854200D06D1C01F08AFA001BA842AE
:10457000FAD331BD80B500F001F801BD80B500F07F
:10458000ACF901BDE0B5C9B2002903D040216A46AB
:10459000117102E000216A46117101A9487064207E
:1045A0000090022301AA7821884802F0E6F807BDAE
:1045B00070B50026340011E0012185482A00D2B2EE
:1045C00008235A4380182200D2B2805CFFF7DAFF3A
:1045D0006D1C2800C0B28028EEDB641C2000C0B235
:1045E00008280FDA002120005038C0B2FFF7CAFFB8
:1045F00000210220FFF7C6FF00211020FFF7C2FFB5
:104600003500E6E770BD70B50400002635000EE009
:104610006F490200D2B208235A4389182A00D2B245
:104620008C54401C0100C9B28029F1DB6D1C2800AC
:10463000C0B208280FDA002128005038C0B2FFF7B6
:10464000A1FF00210220FFF79DFF00211020FFF7AE
:1046500099FF3000E6E7FFF7ABFF70BDF8B5040047
:1046600000202000C0B2802805DA68460170684644
:104670000078402800DB35E015000827072668464B
:104680000078390002F0AAFD361A68460078390031
:1046900002F0A4FD01200722511A8840EDB2002D3E
:1046A00010D04B492200D2B208235A438A18330053
:1046B000DBB2E4B208256C430919F6B2895D084300
:1046C000D0540FE042492200D2B208235A438B183B
:1046D0003200D2B2E4B208256C430919F6B2895D02
:1046E00081439954F1BDF9B581B00D00684645701C
:1046F000203A6846027000270FE000222900C9B264
:1047000068460079FFF7AAFF50E06846457868469A
:104710000079401C694608717F1C38006946097A97
:10472000C0B288424FD26846007A0C2818D108A837
:104730000078002809D04548694609780C22514381
:1047400040183900C9B2445C22E040486946097803
:104750000C22514340183900C9B2405CC44317E0F1
:1047600008A80078002809D039486946097810223D
:10477000514340183900C9B2445C09E034486946E5
:1047800009781022514340183900C9B2405CC44333
:1047900000263000C0B20828BEDA2006ADD50122BE
:1047A0002900C9B268460079FFF758FF64006D1C04
:1047B0002800C0B269464978401A6946097A884299
:1047C000A3D0761CE5E7F7BD00000000B80A002082
:1047D00004000020FEB504000D00160032E00227A0
:1047E000802100916846007A390002F0F7FC0099B8
:1047F000081A2100C9B2884211DA00200400694673
:10480000097A6D1840216A46127A891A2A00D2B2B2
:10481000914204DA040025000020FFF7F4FE08A806
:10482000007800906846037A32782900C9B22000E7
:10483000C0B2FFF758FF6846007A390002F0CEFC9C
:104840002418761C30780028C9D1F7BDF07D000807
:1048500000780008F7B582B01F0008263800C0B203
:10486000C01D310002F0BAFC69460880002529E02D
:10487000200080B2310002F0B1FC049A290089B214
:104880006B461B8859435118095C8020220052074F
:10489000520F104101420CD001226846007B2900D2
:1048A0004118C9B26846007A2300C018C0B2FFF7A9
:1048B000D5FE641C20003900C9B280B289B288429A
:1048C000D6D36D1C28000AA9097880B289B2884223
:1048D00001D20024EEE705B0F0BD80B50021AE2086
:1048E000FFF750FE00210020FFF74CFE00211020B2
:1048F000FFF748FE00214020FFF744FE0021812001
:10490000FFF740FE0021CF20FFF73CFE0021A12051
:10491000FFF738FE0021C020FFF734FE0021A6205B
:10492000FFF730FE0021A820FFF72CFE00213F20DA
:10493000FFF728FE0021D320FFF724FE00210020EE
:10494000FFF720FE0021D520FFF71CFE002180206C
:10495000FFF718FE0021D920FFF714FE0021F120F7
:10496000FFF710FE0021DA20FFF70CFE00211220D5
:10497000FFF708FE0021DB20FFF704FE00214020A6
:10498000FFF700FE00212020FFF7FCFD00210220A0
:10499000FFF7F8FD00218D20FFF7F4FD0021142022
:1049A000FFF7F0FD0021A420FFF7ECFD0021A62079
:1049B000FFF7E8FD0021AF20FFF7E4FD0020FFF73F
:1049C00022FE01BD10B50400002C01D1012035E00C
:1049D000A0690028FFD1606F002805D10020702158
:1049E0006054200002F07CFB24206067206800688F
:1049F0000121884321680860200000F045F9012862
:104A000001D101201AE0606A002802D0200000F0E5
:104A1000EBFA206840680A4901402068416020683C
:104A200080682A2188432168886020680068012105
:104A3000014320680160200000F048FB10BD000029
:104A4000FFB7FFFFFEB504001D00606F202870D186
:104A50000E00002E05D068460280684600880028B7
:104A600001D1012066E080277F01A068B84207D10C
:104A70002069002804D13000C00701D5012059E089
:104A80007020205C012801D1022053E00120702118
:104A900060540020E0672120606700F0F1FF019082
:104AA0006846008850216052684600885221605252
:104AB0000295A068B84204D12069002801D10025E0
:104AC00014E03500002611E02878216888626D1C0A
:104AD00007E0002DF8D13088C005C00D216888623C
:104AE000B61C5220205A401E522160525220205A99
:104AF00000280BD002980090019B0022802120000A
:104B000000F018FB0028E4D0032013E00298009086
:104B1000019B00224021200000F00CFB002801D066
:104B2000032007E0202060670020702160540020EF
:104B300000E00220FEBDF8B584B004001F00A06FA5
:104B4000202800D09BE00E00002E05D06846028091
:104B500068460088002801D1012091E080256D0180
:104B6000A068A84207D12069002804D13000C007FE
:104B700001D5012084E07020205C012801D10220B1
:104B80007EE00120702160540020E0672220A067B1
:104B900000F076FF0290684600885821605268460F
:104BA00000885A216052A068A8420AD120690028D2
:104BB00003D134485C21605224E0FF205C21605224
:104BC00020E0A06800280AD12069002803D1FF2036
:104BD0005C21605216E07F205C21605212E0A068E8
:104BE0008021490588420AD12069002803D17F200D
:104BF0005C21605206E03F205C21605202E0002010
:104C00005C2160525C20205A694688800397A06826
:104C1000A84204D12069002801D1002518E0350000
:104C2000002615E02068406A69468988014029709D
:104C30006D1C08E0002DF5D12068406A694689881E
:104C400001403180B61C5A20205A401E5A21605221
:104C50005A20205A00280BD003980090029B002273
:104C60002021200000F066FA0028E3D0032007E0AE
:104C70002020A067002070216054002000E0022066
:104C800005B0F0BDFF010000F8B5040010221000CF
:104C90000020002500212368B34EB342FFD0A36853
:104CA00026691E4367693743E3693B4326683668D4
:104CB000AE4F37403B432668336023685B68AC4E99
:104CC0001E40E368334326687360A3690093A64BD4
:104CD00026689E4203D0009F266A3E4300962668BF
:104CE000B768A44E3E40009F37432668B7602668E9
:104CF000A14FBE4215D1B74E3668B607B60F002E8B
:104D000005D0022E05D006D3032E06D007E00126DB
:104D100044E0022642E0042640E008263EE0160079
:104D20003CE02668AC4FBE4216D1AA4E36680C272E
:104D30003740002F06D0042F08D0082F04D00C2FA6
:104D400006D007E0002629E0022627E0042625E019
:104D5000082623E0160021E026689E421DD19D4EC4
:104D60003768C02636013E40002E0CD08027FF0059
:104D7000BE420CD080273F01BE4206D0C0273F0173
:104D8000BE4206D007E0002608E0022606E0042620
:104D900004E0082602E0160000E0160027689F42A3
:104DA0004BD1F6B2002E06D0022E08D0042E0FD022
:104DB000082E11D013E001F087FA010010E08748B7
:104DC00000680240002A01D0854900E0854907E0DB
:104DD00001F036FA010003E08021090200E001251C
:104DE000002900D1EFE0606803225043814205D3DF
:104DF0006068802252015043884201D20125E2E0DE
:104E00000800002180225200002302F041FA020033
:104E10000B00606840080021801859416268002337
:104E200002F04FFAC0218900411AA74A914202D2EA
:104E30002168C860C7E00125C5E080210902E36957
:104E40008B4262D1F6B2002E08D0012E12D0022E73
:104E50001CD0042E31D0082E3BD044E001F034FAAF
:104E600002214843616849084018616802F0B9F9B5
:104E700080B239E001F034FA022148436168490800
:104E80004018616802F0ADF980B22DE05348006827
:104E90000240002A08D060684008A44940186168B0
:104EA00002F09FF980B207E060684008A04940180E
:104EB000616802F096F980B216E001F0C1F90221B2
:104EC0004843616849084018616802F08AF980B275
:104ED0000AE060684008802149024018616802F0D9
:104EE00080F980B200E00125AB490200103A8A4205
:104EF00009D20200114040084007400F084380B229
:104F00002168C8605FE001255DE0F6B2002E08D0A0
:104F1000012E10D0022E18D0042E38D0082E40D0EA
:104F200047E001F0D1F9616849084018616802F072
:104F300058F980B23EE001F0D3F9616849084018A1
:104F4000616802F04EF980B234E024480068024003
:104F5000002A13D06068400821494018616802F0B7
:104F600040F980B212E000BF00480040F369FFEF53
:104F7000FFCFFFFFFFF4FFFF0038014060684008EB
:104F800018494018616802F02CF980B212E001F073
:104F900057F9616849084018616802F022F980B247
:104FA00008E0606840084018616802F01AF980B2B1
:104FB00000E0012501001039774A914202D22168B0
:104FC000C86000E001250020206660662800C0B2AD
:104FD000F2BD00BF4C1002400044004000100240EF
:104FE00000093D000024F40000B52421415CC907FC
:104FF00007D501684968694A0A40816A1143026815
:1050000051602421415C890707D501684968644AD9
:105010000A40C16A1143026851602421415C49077A
:1050200007D5016849685F4A0A40016B114302686D
:1050300051602421415C090707D5016849685A4A33
:105040000A40416B1143026851602421415CC9064A
:1050500007D501688968554A0A40816B1143026887
:1050600091602421415C890607D501688968504A0E
:105070000A40C16B1143026891602421415C4906DA
:1050800014D5016849684B4A0A40016C1143026813
:105090005160016C80225203914207D10168496836
:1050A000454A0A40416C1143026851602421415C29
:1050B000090607D501684968404A0A40816C1143D6
:1050C0000068416000BD000000FD0F007CB50400D9
:1050D0000025E56700F0D4FC0600206800680007A2
:1050E0000CD537480090330000228021890320002E
:1050F00000F020F8002801D0032016E020680068A6
:1051000040070CD52E480090330000228021C903AF
:10511000200000F00FF8002801D0032005E0202037
:105120006067A06770202554002076BD00127A00C9
:105130000048E801F4B504000D001F00069E206839
:10514000C0692840A84201D1012000E00020694642
:10515000097888421ED10020C0438642EFD000F07B
:105160008FFCC01B864201D3002EE8D12068006866
:10517000144901402068016020688068012188434B
:105180002168886020206067A0670020702160543B
:10519000032000E00020F2BDF0FF0000FFFFFDFF54
:1051A000FFFFFEFFFFFFFBFFFF7FFFFFFFEFFFFFA4
:1051B000FFDFFFFFFFFFEFFFFFFF9FFFFFFFF7FF97
:1051C000FFFFFF015FFEFFFFF8B502000023002094
:1051D000002032E0062403E0724CA242FAD10524FA
:1051E0001F003E4004277E43B44004436F489E089E
:1051F00004277E4384516C4C2068A8434E68F60314
:1052000000D5284320606A4C2068A8434E68B60346
:1052100000D528432060674C2068A8434E68F602FA
:1052200000D528432060644C2068A8434E68B6022D
:1052300001D50543280020605B1C0868D840002881
:1052400000D1ADE00124086825009D400540002DF7
:10525000F2D04868022802D0486812281ED1D80827
:10526000042670431018076A072000970F26B446DB
:105270001F000740042677436646BE40009FB743A1
:10528000BC460E691F0038400427784386406746B5
:105290003E43D8080427784310180662486801285E
:1052A00008D04868022805D04868112802D048680C
:1052B00012281BD19668032084461F000220474312
:1052C0006046B8408643CF68BC4618000227784342
:1052D000674687403743976056682000984086436A
:1052E0004868000920409840304350601768032602
:1052F000BC461F00022047433000B8406746874342
:1053000000974868304084461F00022047436046AB
:10531000B840009F38431060D768BC461F00022089
:1053200047433000B8406746874300978868844603
:105330001F00022047436046B840009F3843D060BA
:105340004868C00000D477E7214807682743076012
:10535000164884469F08042047436046C059009081
:105360000F27BC461F0030003840042778436746AB
:1053700087400098B843A027FF05BA4201D1002416
:105380002EE7144FBA4200D12AE7134CA24201D1B2
:10539000022425E7114CA24200D01DE734001FE78C
:1053A000F1BD0000001C0050000401400800014055
:1053B00004040140080401400C04014000B5D2B2CD
:1053C000002A02D089B2816101E089B2816200BD08
:1053D000341002400004005000080050000C00503F
:1053E00010B50400002C01D1012068E02120205CD0
:1053F000002805D1002020216054200001F02AFE61
:10540000022021216054CA2021684862532021686B
:105410004862200000F0DAF9002807D0FF20216858
:105420004862042021216054012048E020688068FF
:105430007F49014020688160206880686168226936
:105440000A43A1691143014320688160E068216833
:10545000086120680069A1680904014320680161AE
:105460002068C068802188432168C8602068C06CBB
:10547000032188432168C8642068C06CE1696269BF
:105480000A4302432068C2642068806880060FD403
:10549000200000F081F900280AD0FF20216848622E
:1054A000042021216054002020216054012006E0C6
:1054B000FF2021684862012021216054002010BD96
:1054C000F8B504002020205C012801D1022080E0F2
:1054D00001202023E05402202123E0540D00002A63
:1054E0001BD120688068400601D40020E87028782D
:1054F00000F08EF90700687800F08AF90600A878B5
:1055000000F086F9FFB23904F6B232020A43C0B2A3
:105510001043E9780E0406430FE0206880684006D7
:1055200001D40020E870287800046978090201435A
:10553000A8780843E9780E040643CA202168486227
:10554000532021684862200000F040F900280AD06A
:10555000FF2021684862042021216054002020217E
:105560006054012035E08948304021680860206897
:105570008068874901402068816020688068E96808
:105580002A690A430243206882602068C06880213B
:1055900088432168C8602068806880060FD4200096
:1055A00000F0FAF800280AD0FF20216848620420A1
:1055B00021216054002020216054012009E0FF20B7
:1055C000216848620120212160540020202160547C
:1055D0000020F2BD10B50C000168896A61600168A5
:1055E00009694904490CA1600068016867480840DE
:1055F0000100090C8906890E21707F21030A0B40E6
:10560000637003001940A170000C40210840E07055
:10561000002A0BD1207800F008F92070607800F0A3
:1056200004F96070A07800F000F9A070002010BDAF
:10563000BFFF8FFFF8B504002020205C012801D1B6
:1056400002207BE0012528002023E05402202123B2
:10565000E0540091002A0AD100984078C00606D58F
:1056600000984078EF2101400A3100984170002AEB
:1056700019D10098C07800F0CBF807000098407866
:1056800000F0C6F806000098807800F0C1F8FFB27C
:105690003904F6B232020A43C0B2104300990978C5
:1056A0004E0306430DE00098C07800040099497845
:1056B00009020143009880780843009909784E0355
:1056C0000643CA20216848625320216848622000AE
:1056D00000F07CF800280AD0FF20216848620420EE
:1056E00021216054002020216054012026E0294817
:1056F0003040216848602068C06880218843216864
:10570000C8602068806880060FD4200000F044F84C
:1057100000280AD0FF20216848620420212160541B
:10572000002020216054012008E0FF202168486209
:10573000212025540020202160540020F2BD0000CB
:1057400010B50C0000684168124808400100090CBF
:10575000E170010AC906C90E617001008906890E4F
:10576000A170400B4007400F2070002A0BD1E07859
:1057700000F05BF8E070607800F057F86070A07897
:1057800000F053F8A070002010BD00007F7F7F0064
:10579000FFFFFBFF3FFFFF0038B504002068C06833
:1057A000A02188432168C86000F06AF905002068DC
:1057B000C068800607D400F063F9401B1349884293
:1057C000F5D3032000E0002032BD000070B50400D6
:1057D00040252068C0682840002813D10020C0431D
:1057E0002168C86000F04CF906002068C0682840B5
:1057F000002807D100F044F9801B04498842F4D303
:10580000032000E0002070BD00000000E90300005C
:1058100000B5002101E0491C0A380200D2B20A2A70
:10582000F9D209010843C0B200BD0100C9B209099B
:105830000A2251430007000F0818C0B2704780B514
:10584000C0B201F087FE02BD80B501F035FE02BD99
:1058500080B501F0DDFE02BDF8B5020092B2804BCA
:105860009A4265D20C000F216D4602000A402A7050
:10587000020092B212110A406A70020092B2121231
:105880001140A97080B2000BE870E878A978401840
:1058900069784018062148432978401828700A265C
:1058A0002878310001F09AFC07002878310001F0D7
:1058B00095FC29706878E978092251437918AA780B
:1058C00005235A438918401868706878310001F040
:1058D00085FC07006878310001F080FC6970FFB238
:1058E000A878022148433818A870A878310001F040
:1058F00075FC0700A878310001F070FCA970FFB2B8
:10590000E878042148433818E870E878310001F05D
:1059100065FCE878310001F061FCE970E8782070FE
:10592000A87860706878A0702878E070002000E0A7
:105930000120F2BD7FB50D008179232900DB8CE0C9
:10594000C179002900D088E080214900027843789D
:105950004B43D21892B200928278C3784B43D2184C
:1059600092B20192027943794B43D21892B20292D9
:105970008279C0794843101880B203900098039947
:10598000A42292005143029AE4235B015A438918EE
:10599000019AAD235B015A43891840180090304C9E
:1059A0000098210001F01DFC06000098210001F084
:1059B00018FC009103982B494843301802992A4A51
:1059C0005143401801990622514340180190019813
:1059D000210001F006FC06000198210001F001FC05
:1059E0000191039821494843301802992A225143D2
:1059F000401802900298210001F0F3FB0600029883
:105A0000210001F0EEFB02910398FF211A31484377
:105A1000301803900398210001F0E3FB0398210064
:105A200001F0DFFB0391032411E0200040B20321C9
:105A3000C9434843281801000C316846220052B27D
:105A400004235A43805880B2FFF706FF641E2000EB
:105A500040B20028E9D5002000E0012004B070BD6C
:105A600010270000F71D0000182500008D1200000F
:105A7000431C0178401C0942FBD1C01A7047FEE765
:105A800001480068704700BF8C0B002070B50D788E
:105A9000002D11D00C0004E0491C0E78964207D06E
:105AA000401C290001F0EEFD002805D00100230074
:105AB0005B1C1A78002AEFD170BDFEE71206130AAC
:105AC0001A43130C1A4300BF094205D0830705D0BF
:105AD0000270401C491EF9D17047000013001039B4
:105AE00006D330B41400150010393CC0FCD230BCD1
:105AF000490700D30CC000D504C0890002D302803E
:105B0000801C002900D502707047FEE7FEB5040036
:105B1000002C01D101209DE2AA4800680C2101401F
:105B20000091A84805688020400205402078C00701
:105B30005DD50098082806D000980C280CD180204C
:105B40004002854208D1A048006880034FD56068B4
:105B500000284CD101207DE2606880214902884202
:105B600006D199480168802252020A4302601FE070
:105B70006068A021C90288420BD193480168802245
:105B8000D2020A4302600168802252020A43026084
:105B90000EE08D480168BD4A0A400260016880221B
:105BA00052021140019101990168B94A0A4002600C
:105BB000606800280DD0FFF763FF06008248006888
:105BC000800314D4FFF75CFF801B6528F6D3032005
:105BD00040E2FFF755FF06007B480068800306D5CA
:105BE000FFF74EFF801B6528F6D3032032E22078B2
:105BF00080074FD5E0680099042904D000990C294A
:105C00002BD1002D29D170490A68520703D50028ED
:105C100001D101201EE2B44A1368B44D1D4023692E
:105C20001B022B4313600A6809239A431043086040
:105C300000F006FBAE49634A126812091207120F00
:105C4000895CC840AB490860002001F0A3F901005D
:105C5000C9B200291ED0C0B2FCE1002829D05A4D9B
:105C600029680922914308432860FFF709FF0600CD
:105C70002868400706D4FFF703FF801B0328F7D3EB
:105C80000320E7E198480168984A0A40216909021F
:105C9000114301602078C0066AD50098002843D1DE
:105CA00049480068800516D5E069002813D1012015
:105CB000D0E1454D2868012188432860FFF7E0FEC8
:105CC000060028684007E5D5FFF7DAFE801B0328A9
:105CD000F7D30320BEE184480168A84A0A40616AFC
:105CE0001143016001680902090A226A12060A4387
:105CF00002600120616A490B491C88408021090229
:105D000048437B492F4A126812091207120F895C17
:105D1000C84078490860002001F03CF90100C9B290
:105D2000002925D0C0B295E1E069002838D0264D81
:105D300028688021490001432960FFF7A1FE060081
:105D40002868800506D4FFF79BFE801B0328F7D345
:105D500003207FE164480168884A0A40616A114370
:105D6000016001680902090A226A12060A430260F8
:105D7000207800073CD56069002827D0B64D2868F8
:105D8000012101432960FFF77BFE06002868800798
:105D90002ED4FFF775FE801B0328F7D3032059E1AB
:105DA000094D2868AD4901402960FFF769FE0600EA
:105DB00028688005DCD5FFF763FE801B0328F7D336
:105DC000032047E10C10024000100240A24D286859
:105DD000012188432860FFF753FE060028688007EA
:105DE00006D5FFF74DFE801B0328F7D3032031E1D2
:105DF0002078400700D487E000258020400598499E
:105E000009680140002904D195490A6810430860D7
:105E10000125944F8026760038683040002811D143
:105E2000386830433860FFF72BFE01903868304007
:105E3000002807D1FFF724FE0199401A6528F5D301
:105E4000032007E1A068B04204D1834801680E43F3
:105E5000066028E0A068002809D17F4801687F4AD1
:105E60000A4002600168804A0A4002601BE0A068A4
:105E7000A021C90088420DD1774801688022D20054
:105E80000A43026001680E4306600CE0FFFFFEFF5C
:105E9000FFFFFBFF70480168704A0A40026001681A
:105EA000714A0A400260A06800280ED0FFF7E8FDA2
:105EB00006006948006880051ED4FFF7E1FD801BDD
:105EC0006A498842F5D30320C4E0FFF7D9FD0600F4
:105ED0006148006880050FD5FFF7D2FD801B63493C
:105EE0008842F5D30320B5E004100240FFE0FFFF35
:105EF0004886000800000020EDB2012D04D158486A
:105F000001685B4A0A4002602078800638D5A069A3
:105F100000281BD0574D01212868084328605648A7
:105F200002681143016055480168802292010A43CA
:105F30000260FFF7A5FD06002868800720D4FFF760
:105F40009FFD801B0328F7D3032083E0494D286879
:105F500001218843286049480168494A0A40026093
:105F6000FFF78EFD06002868800709D5FFF788FD3A
:105F7000801B0328F7D303206CE000BFFF1FFFFF47
:105F8000A06A002865D000980C2847D0A06A022893
:105F900032D1A64D2868A64901402960FFF770FD5F
:105FA00007008026B60428683040002806D0FFF796
:105FB00067FDC01B0328F4D303204BE09E48016813
:105FC0009C4A0A40E16A1143226B0A43616B114308
:105FD000016028688021490401432960FFF750FDD2
:105FE000040028683040002833D1FFF749FD001B2A
:105FF0000328F6D303202DE08C4C20688C49014007
:106000002160FFF73DFD05002068800121D5FFF7E5
:1060100037FD401B0328F7D303201BE0A06A0128AB
:1060200001D1012016E08448006880214902014026
:10603000E26A91420BD1F02189030140226B914227
:1060400005D1C02109040140606B814201D00120CB
:1060500000E00020FEBD000050100240FFFEFFFFE8
:106060003810024000700040FFFBFFFF8913000062
:10607000FFFFFFEF081002403410024020000140F3
:10608000FFDFFFFFFEB50400002C01D10120CBE0B3
:1060900000910125694F38682840009988420CD248
:1060A00038680121884300990143396038682840E5
:1060B0000099884201D00120B6E02078800706D5FB
:1060C0005D480168F0229143A2680A43026020689B
:1060D000284000286BD06068022805D1534800682A
:1060E000800319D401209FE06068032805D14F4840
:1060F0000068800110D4012096E06068012805D175
:106100004A480068400707D401208DE047480068EE
:10611000800501D4012087E0474E30680321884381
:10612000616801433160FFF7ABFC019060680228B1
:106130000DD130680C210140082938D0FFF7A0FCB0
:106140000199401A6C498842F3D303206CE06068DF
:1061500003280DD130680C2101400C2927D0FFF70E
:106160008FFC0199401A64498842F3D303205BE015
:10617000606801280DD130680C210140042916D037
:10618000FFF77EFC0199401A5B498842F3D3032054
:106190004AE030680C210140002908D0FFF770FC6C
:1061A0000199401A54498842F3D303203CE00098F7
:1061B0003968294088420CD2386801218843009907
:1061C00001433960386805400098854201D00120BC
:1061D0002AE02078400706D517480168484A0A4057
:1061E000E168114301602078000707D51248016873
:1061F000444A0A402169C9001143016000F020F8B7
:1062000041490D4A126812091207120F895CC840F1
:106210003E490860002000F0BDFE0100C9B200291F
:1062200001D0C0B200E00020FEBD0000001002401E
:10623000FFFFFFFEFFFF02FF0C10024000200240A4
:1062400000B52E4A11680C200840042804D0082804
:106250000AD00C280AD028E02D480068C00601D5D5
:106260002C4800E02C482BE02C4829E02C488B0CD3
:106270001B071B0FC05C890D8907890F491C126819
:10628000D20304D5254A504300F0ABFF0CE0204A6E
:106290001268D20604D51F4A504300F0A2FF03E063
:1062A0001D4A504300F09DFF0AE01E480068400B65
:1062B0004107490F0120491C8840802109024843B9
:1062C00000BD12480068704780B5FFF7FAFF164915
:1062D000164A1268120A5207520F895CC84002BD62
:1062E00080B5FFF7EEFF1049104A1268D20A520734
:1062F000520F895CC84002BD891300000C10024097
:10630000FFF8FFFFFFC7FFFF4886000800000020DE
:106310000010024000093D000024F40000127A0041
:106320009886000804100240D88600080C1002402D
:10633000F8B504002078800600D482E0207880063A
:106340000025802040055E4909680140002904D1EC
:106350005B490A681043086001255A4E3068C00541
:1063600011D430688021490001433160FFF788FB78
:1063700007003068C00506D4FFF782FBC01B652804
:10638000F7D303209AE050480168C02080030840FA
:106390006168C02292030A4090420BD0C020800264
:1063A00061680140814205D147480068800301D5FA
:1063B000012083E0454EC027BF02306838400028E6
:1063C00024D061683940884220D0207880061DD5CD
:1063D00031683F4808403168802212030A43326026
:1063E00031683C4A0A4032603060C0050ED5FFF784
:1063F00047FB00903068800508D4FFF741FB009907
:10640000401A35498842F5D3032057E06068384088
:10641000B84209D12C480268304911406268C02353
:106420009B0313400B430360306861680F400743D0
:106430003760EDB2012D04D121480168284A0A4095
:1064400002602078C00706D52648016803229143E0
:10645000A2680A4302602078800706D521480168B7
:106460000C229143E2680A4302602078400706D577
:106470001C4801681C4A0A402169114301602078C8
:10648000000706D517480168184A0A406169114398
:1064900001602078400606D512480168144A0A4077
:1064A000E169114301602078000606D50D480168B6
:1064B000104A0A40A169114301600020F2BD0000AA
:1064C000381002400070004000100240501002409E
:1064D000FFFFFCFFFFFFF7FF89130000FFFFCFFF67
:1064E000FFFFFFEF4C100240FFF3FFFFFFCFFFFF66
:1064F000FFFFFFFBFFFFF3FF10B50400002C01D1ED
:1065000001203CE0607F002804D10020207720009B
:1065100000F066FD022060772079002810D118482D
:106520002168486120688068182188432168886054
:10653000607900280DD10020C043216808610BE07C
:10654000E268A168200001F0A6F80028F0D0012040
:1065500015E020692168086120688068602188430F
:1065600061690143206881602068806880218843D8
:10657000A16901432068816001206077002010BD7F
:10658000B71DC104F8B50400002318000225657783
:1065900001252668B6682E432768BE60266A012E4C
:1065A00010D017D3032E01D010D313E005E0042040
:1065B00058430858266830605B1C9342F7D3206824
:1065C000006807E0200000F007F803E0200000F07A
:1065D00053F8FFE76577F2BD70B5002317E0042498
:1065E0005C430C5D240604255D434D196D782D0434
:1065F000254304245C430C19A47824022C4304256D
:106600005D434D19ED782543046825605B1C9408B3
:10661000A342E4D3032422422BD025001540012DB0
:1066200004D104255D434D5D066835702500154095
:10663000022D0AD104255D434D5D2D0204265E43E3
:106640008E1976783543066835801440032C10D1B6
:1066500004225A438A5C120204245C430C196478B5
:1066600022430468228004225343C91889780268AF
:1066700011700068006870BD70B500230DE004243F
:106680005C430C5B240402255D43022675434D19CF
:106690006D882C4305682C605B1C5408A342EED324
:1066A000D20704D5026804246343C95A11800068E4
:1066B000006870BD10B50400002C01D101205BE022
:1066C0004120205C002805D100204021605420009A
:1066D00000F096FC242041216054206800680121CC
:1066E00088432168086060687F4901402068016133
:1066F0007E4821688968014022689160E16801292B
:1067000006D1A168802212020A4321688A6005E04E
:10671000A168842212020A4321688A60E168022982
:1067200003D1802109012268516021684968704ABB
:106730000A4321684A602168C96808402168C86026
:10674000206961690143A069000208432168C860AB
:10675000E069216A01432068016020680068012126
:106760000143206801600020606420214122A1547F
:10677000206342216054002010BDFEB504000F00CC
:1067800016001D004120205C202800D0A9E04020F8
:10679000205C012801D10220A4E0012040216054A6
:1067A000FFF76EF9019001980090192301228021D2
:1067B0000902200000F0B8F8002801D0012091E083
:1067C000280021214122A15410214222A154002558
:1067D0006564666260856563089E608DFF280DD9DB
:1067E000FF2020854348009080235B04228DD2B295
:1067F000390089B2200000F05DF91AE0608D208533
:106800003C48009080239B04228DD2B2390089B28B
:10681000200000F04FF90CE0FF20208500200090C0
:1068200080235B04228DD2B2390089B2200000F0AF
:1068300041F9608D002839D0019A3100200000F024
:106840009FF8002801D001204CE0606A00782168A0
:106850008862606A401C60622748618D0918618502
:10686000218D08182085608D0028E2D0208D002819
:10687000DFD101980090330000228021200000F039
:1068800053F8002801D001202CE0608DFF28C3D8E8
:10689000608D20850020009080239B04228DD2B241
:1068A000390089B2200000F005F9C2E7019A3100F1
:1068B000200000F091F8002801D0012012E02020F3
:1068C0002168C861216849680C4A0A4021684A6009
:1068D000412160542800422160544020255400206A
:1068E00000E00220FEBD0000FFFFFFF0FF7FFFFF82
:1068F0000080000200200080FFFF000000E800FE92
:1069000000B501688969890702D500210268916292
:106910000121026892690A40002A04D10268926942
:1069200011430068816100BDF4B504000F001D0033
:10693000069E206880693840B84201D1012000E0FD
:10694000002069460978884218D10020C04385425A
:10695000EFD0FFF795F8801B854201D3002DE8D1D9
:106960002020616C014361644121605400200100DA
:106970004222A15440216054012000E00020F2BDD9
:1069800070B504000D00160020688069800721D4CE
:1069900032002900200000F048F8002801D0012032
:1069A00019E00020C0438542EED0FFF769F8801B54
:1069B000854201D3002DE7D12020616C0143616441
:1069C00041216054002001004222A1544021605422
:1069D000012000E0002070BDF8B505000E00170092
:1069E000202428688069204000281CD13A0031000A
:1069F000280000F01AF8002813D1FFF741F8C01B57
:106A0000864201D3002EEBD1686C2043686441209C
:106A10002C54002001004222A95440216854012036
:106A200002E0012000E00020F2BDF4B504000F00F8
:106A30001025206880692840002839D02026206849
:106A400080693040002818D10020C0438742F5D02B
:106A5000FFF716F80099401A874201D3002FEDD1B5
:106A6000606C3043606441202654002001004222C3
:106A7000A1544021605401201BE02068C5612068BA
:106A8000C6612000FFF73CFF2068406814490140C0
:106A900020684160606C04210143616441202654F8
:106AA000002001004222A15440216054012000E056
:106AB0000020F2BDF0B4049C05686D68660D094FB6
:106AC0003743BD4389B28905890D2943D2B21204E7
:106AD0000A4313431C4300684460F0BC7047000045
:106AE00000E800FEFF63FF0310B54122825C202A0C
:106AF0002AD14022825C012A01D1022025E0012214
:106B000013004024035524234124035503681B68C4
:106B10000124A3430468236003681B68234C1C40C2
:106B200003681C6003681B681943036819600168E7
:106B300009680A4301680A6020214122815400212A
:106B400040228154002000E0022010BD10B54122F7
:106B5000825C202A27D14022825C012A01D10220B6
:106B600022E001221300402403552423412403552D
:106B700003681B680124A3430468236003681B683F
:106B80000B4C1C4009022143036819600168096825
:106B90000A4301680A6020214122815400214022D9
:106BA0008154002000E0022010BD0000FFEFFFFF35
:106BB000FFF0FFFF00685030042359434018026083
:106BC0007047FEE738B50400002C01D101203FE0FA
:106BD000606A00280025A5625120205C002805D1AC
:106BE000280050216054200000F040FA022051217A
:106BF000605420680068402188432168086060680C
:106C0000A1680143E06808432169014360690843C2
:106C1000A1698022920011400143E0690843216A82
:106C20000143A06A084321680860A069000C0421A0
:106C30000840616A0143206841602068C0690549D5
:106C400001402068C1616565012051216054002028
:106C500032BD0000FFF7FFFFFEB582B00400012740
:106C6000009700263500E068002806D1E06800287B
:106C700003D16846008A0228FFD35020205C0128F7
:106C800001D1022007E1380050216054FEF7F8FEE0
:106C900001905120225C61686846008A1300DBB2D3
:106CA000012B0BD082235B00994205D1A1680029FA
:106CB00002D1D2B2042A01D00225E6E002990029CD
:106CC00006D00399002903D06A46128A002A01D10E
:106CD0003D00DAE05122A25C042A02D005225123B1
:106CE000E2546665A1636946098AE1876946098AB3
:106CF000A187029921636946098AE1866946098A62
:106D0000A186266466644021226812680A40002A2F
:106D100004D122681268114322681160E168802260
:106D2000120191424CD16168002902D080B2012841
:106D300009D1206B00882168C860206B801C20630B
:106D4000E08E401EE086E08E002803D1E08F002810
:106D500000D184E020688068800710D5E08E00288C
:106D60000DD0009801280AD1206B00882168C860E6
:106D7000206B801C2063E08E401EE0860096206819
:106D80008068384000280DD0E08F00280AD02068A5
:106D9000C068A16B0880A06B801CA063E08F401EC0
:106DA000E0870097FEF76CFE0199401A0A99884225
:106DB000C9D30A980021C9438842C4D0032564E09E
:106DC0006168002902D080B2012809D1206B0078C7
:106DD00021680873206B401C2063E08E401EE08613
:106DE000E08E002802D1E08F002838D0206880682B
:106DF000800710D5E08E00280DD0009801280AD118
:106E0000206B007821680873206B401C2063E08EA3
:106E1000401EE086009620688068384000280DD02B
:106E2000E08F00280AD02068C068A16B0870A06BB2
:106E3000401CA063E08F401EE0870097FEF720FE15
:106E40000199401A0A99884204D30A980021C9433B
:106E5000884202D10A980028C2D1032515E0019A80
:106E60000A99200000F06AF8002803D03D00202095
:106E700060650AE0A068002807D100962068C06815
:106E8000009020688068009000985120275450207E
:106E900026542800C0B205B0F0BDF4B504000F00C0
:106EA0001D00069E206880683840B84201D101204C
:106EB00000E000206946097888423DD00020C043A8
:106EC0008542EFD0FEF7DCFD801BA84201D2002DE9
:106ED000E8D120684068E021884321684860606804
:106EE0008221490088420FD1A0688021090288428E
:106EF00004D0A0688021C900884205D120680068BC
:106F0000402188432168086080208001A16A814275
:106F10000AD1216809681E4A0A4021680A6021686E
:106F2000096808432168086001205121605400204D
:106F300050216054032000E00020F2BD1CB5040085
:106F40000B0060688221490088420DD10092002226
:106F500080212000FFF7A1FF002817D0606D2021BD
:106F600001436165032012E05120205C05280DD10A
:106F70000092002201212000FFF78FFF002805D09A
:106F8000606D202101436165032000E0002016BDF3
:106F9000FFDFFFFF38B5050000240A480068FA212A
:106FA000890000F01EF900F00FFC002801D0012438
:106FB00005E0290000220020C04300F000FC200072
:106FC000C0B232BD000000206D48016801220A43B2
:106FD00002606C480168802252050A4302607047D3
:106FE00080B500686849884209D18020400167491E
:106FF0000A6802430A60096808400090009801BDD1
:1070000010B586B004001422002101A800F0EAFBAC
:1070100020685F4988421BD102205E490A6802430A
:107020000A600968084000900098C0200190122072
:1070300002900120039003210491059001A9564874
:10704000FEF7C2F84F480168802292030A430260AB
:1070500006B010BD00B500685049884205D15048BF
:1070600001688022D2020A43026000BD70B586B07A
:10707000040014220021684600F0B4FB206849494E
:1070800088422BD13E480168802252010A430260A7
:1070900001244048016821430160006820400590B8
:1070A0000598F02000900220019000250295032011
:1070B00003900495A026F60569463000FEF784F893
:1070C0001020009001940295039569463000FEF768
:1070D0007BF8012210213000FEF770F906B070BD78
:1070E00010B586B0040014220021684600F07AFB37
:1070F00020682D4988421FD1214801688022D20191
:107100000A430260012023490A6802430A600968B1
:10711000084005900598C020C00000900220019012
:107120000020029003200390042004906946A020D0
:10713000C005FEF749F821E020681C4988421DD1AE
:1071400010480168802292020A430260012011491E
:107150000A6802430A6009680840059005980C20F7
:107160000090022001900020029003200390042050
:1071700004906946A020C005FEF726F806B010BDB1
:1071800034100240381002400030024030100240FB
:10719000005400402C100240000400500028004021
:1071A00050100240003001400038014000440040CF
:1071B000F446002804D4494200F013F840426047E6
:1071C0004042002905D45FD000F00BF8404249420C
:1071D0006047494200F005F84942604703460B43C7
:1071E000E6D40022030A8B420BD203098B4219D248
:1071F00043088B422ED2411A00D20146524110461A
:107200007047FF2209023FD012068B4205D31212AB
:1072100009028B4201D31212090203098B4219D3CE
:1072200000E0090AC3098B4201D3CB01C01A5241C5
:1072300083098B4201D38B01C01A524143098B420F
:1072400001D34B01C01A524103098B4201D30B01F8
:10725000C01A5241C3088B4201D3CB00C01A52411D
:1072600083088B4201D38B00C01A524143088B42E2
:1072700001D34B00C01A5241884200D3401A5241F8
:10728000CFD201461046704708B500F0B5FA08BDE8
:1072900030B4434351435D18010C0C00130C5C43A4
:1072A0002D1980B2434392B251430024C91864415E
:1072B00024040B04090C09195043C018694130BC5F
:1072C0007047124224D0994228D970B500251B423C
:1072D00002D00C00002109E0002401264918644175
:1072E000944200D3A41A7641F8D33100012601E07C
:1072F000764109D2001864416D41A41A9D41F7D22C
:10730000A4185D41B619F5D3300022002B0070BDE2
:107310001B42D8D108B500F071FA08BD01D19042E6
:10732000D3D202000B00002100207047F1B588B0D5
:107330000C00012100252A0002AE3000FEF7BEFB42
:107340000F2631002A0003AD2800FEF7B7FBA02767
:10735000FF05002210213800FEF730F8C04D322022
:107360000090012303AA02A92800FFF775FC010081
:10737000019132200090E4B2264033009BB203AA70
:1073800008992800FFF768FC0199084304000122CE
:1073900010213800FEF712F80A20FDF7DBF8200074
:1073A000C0B209B0F0BDFEB501A8401CAD490A78D5
:1073B0000270012631000024220001AD2800FEF7F2
:1073C0007DFB2500A027FF05002210213800FDF7D6
:1073D000F5FF11E0641C32200090012301AA01A9ED
:1073E000491C9F48FFF738FC284305006846007990
:1073F000082108406946087168460079082803D0CA
:107400002000C0B2FE28E5DB012210213800FDF784
:10741000D5FF0A20FDF79EF8E4B2FE2C00DB350014
:107420002800C0B2FEBDF8B586B0050001A88E499F
:107430000A7802700F200090002202AC0099200010
:10744000FEF73CFBA027FF05002210213800FDF7C6
:10745000B5FF834E32200090012302AA01A930001B
:10746000FFF7FAFB04003220009002232A0002A951
:107470003000FFF7F1FB20430400287880280FD16B
:10748000687800280CD032200090687803071B0F22
:107490009BB2AA1C02A93000FFF7DEFB20430400C8
:1074A000012210213800FDF789FF0A20FDF752F86C
:1074B0002000C0B207B0F0BD30B589B068466B4956
:1074C0000A7802701E210024220001AD2800FEF778
:1074D000F5FA012501216846FFF728FF00280DD1A4
:1074E000FFF761FF002809D101A8FFF79CFF0028E2
:1074F00004D168460079552800D125002800C0B283
:1075000009B030BD18B5C1B0684659490A68026073
:1075100001A8584980225200FCF7DEFF0124042113
:107520006846FFF703FF002810D1FFF73CFF002853
:107530000CD101A8FFF777FF002807D101A8017837
:10754000002903D14078002800D100242000C0B2D7
:1075500042B010BD80B5C0B2012802D1FFF7D2FF02
:1075600000E0012002BDF8B588B006000F0015004C
:107570001E2100226C462000FEF7A0FA8E2439005E
:10758000C9B23000FFF7D2FE00283DD1FFF70BFF54
:10759000002839D16846FFF746FF002834D16E46EF
:1075A00030782870287880282DD1707804282BDB3B
:1075B0007078C01E68706A786846811CAF1C3800FD
:1075C000FCF7A4FF687830188078FC21685468784C
:1075D0003018C078FD216854687830180079FE2191
:1075E0006854FD20285C802149004843FC21695CE7
:1075F00046186978A81C00F026F836B200B2864218
:1076000002D12C7800E02C782000C0B209B0F0BD87
:1076100038B5C2B00400684617490CC90CC0083917
:10762000083802AA05216846FFF79DFF05000822D9
:1076300002A841784118891F2000FCF767FF280045
:10764000C0B243B030BD80B50A00D2B201000B48D1
:10765000FEF798FF01000A48484080B202BD0000D2
:10766000600A0020048700080587000806870008D4
:10767000E086000864820008D0860008040B002021
:10768000FFFF0000C9B202788A4203D0401C002AE2
:10769000F9D100207047F0B500231F2425002E00EB
:1076A000751E002E06D02F0026003E400F00F7402A
:1076B000FE07F4D51400002C11D0082C0BD0102C90
:1076C00005D0182C0CD1072D00D3012309E0082D7B
:1076D00000D3012305E0102D00D3012301E000E0D9
:1076E00001231C00E4B2002C08D104686161016828
:1076F00089681824A1430A43006882601800C0B258
:10770000F0BDFEE7F0B5020052B2002A23D50322F5
:107710000F242F4B05006DB22540083DAD0804260F
:107720007543060076B23440083CA408042674432E
:107730001E59FF27BC461400044008277C436746B7
:10774000A740BE438901C9B202400820424391408C
:10775000314359511AE01F4A0323040064B2A408BC
:1077600004256C431459FF251E00064008277E435C
:10777000B540AC438901C9B2034008256B43994029
:10778000214340B28008042358431150F0BD80B516
:10779000411E80225204914201D301200EE0401E7E
:1077A0000D49086003210020C043FFF7ABFF002014
:1077B0000A49086007200A490860002002BD80B518
:1077C00040B2FFF79FFF01BD80B5FFF7E0FF02BDAC
:1077D0001CED00E000E400E014E000E018E000E050
:1077E00010E000E010B504000800110002002000C5
:1077F000FEF764F9200010BD7047FEE77047FEE712
:107800000000000000000000000000000000000078
:107810000000000000001FCC000C00000000000071
:107820000000080030006000080030006000000028
:10783000022003FC1E20022003FC1E200220000068
:1078400000000E1811043FFF10840C7800000000A7
:107850000F0010840F3800C00778188400780000EB
:1078600000780F8410C411240E9800E400840008EE
:107870000800680070000000000000000000000028
:1078800000000000000007E018182004400200007B
:10789000000040022004181807E00000000000006B
:1078A0000240024001800FF00180024002400000CF
:1078B0000080008000800FF80080008000800000C1
:1078C0000001000D000E000000000000000000009C
:1078D0000000008000800080008000800080008028
:1078E0000000000C000C0000000000000000000080
:1078F000000000060018006001800600180020004B
:10790000000007F0080810041004080807F0000041
:107910000000080408041FFC00040004000000002C
:1079200000000E0C10141024104411840E0C0000E2
:1079300000000C1810041104110412880C700000CF
:10794000000000E00320042408241FFC00240000A1
:1079500000001F981084110411041088107000009A
:10796000000007F008881104110418880070000056
:1079700000001C00100010FC13001C001000000090
:1079800000000E3811441084108411440E38000099
:1079900000000700088C10441044088807F000001D
:1079A000000000000000030C030C000000000000B9
:1079B00000000000000101060000000000000000BF
:1079C000000000800140022004100808100400009C
:1079D00002200220022002200220022002200000B9
:1079E000000010040808041002200140008000007C
:1079F00000000E001200100C106C10800F00000030
:107A000003E00C1813E4142417C4082807D000005E
:107A10000004003C03C41C40074000E4001C0004B8
:107A200010041FFC1104110411040E8800700000E2
:107A300003E00C1810041004100410081C100000BF
:107A400010041FFC100410041004080807F00000C4
:107A500010041FFC1104110417C4100408180000BE
:107A600010041FFC1104110017C0100008000000D2
:107A700003E00C181004100410441C7800400000AF
:107A800010041FFC10840080008010841FFC100470
:107A90000000100410041FFC10041004000000007B
:107AA00000030001100110011FFE10001000000073
:107AB00010041FFC110403801464181C100400003F
:107AC00010041FFC1004000400040004000C00005B
:107AD00010041FFC1F0000FC1F001FFC100400000E
:107AE00010041FFC0C04030000E010181FFC100021
:107AF00007F00808100410041004080807F000003C
:107B000010041FFC10841080108010800F000000F3
:107B100007F0081810241024101C080A07F20000AF
:107B200010041FFC1104110011C011300E0C0004D0
:107B300000000E1C11041084108410441C38000036
:107B40001800100010041FFC1004100018000000A2
:107B500010001FF810040004000410041FF81000A7
:107B600010001E0011E0001C007013801C001000AB
:107B70001FC0103C00E01F0000E0103C1FC00000D0
:107B80001004180C163401C001C01634180C10046F
:107B900010001C00130400FC13041C001000000063
:107BA0000804101C1064108413041C041018000036
:107BB0000000000000007FFE400240024002000082
:107BC000000030000C0003800060001C0003000077
:107BD00000004002400240027FFE00000000000062
:107BE0000000000020004000400040002000000095
:107BF000000100010001000100010001000100017D
:107C000000004000400020000000000000000000D4
:107C100000000098012401440144014400FC0004D8
:107C200010001FFC0088010401040088007000009F
:107C300000000070008801040104010400880000B5
:107C40000000007000880104010411081FFC0004FA
:107C5000000000F8014401440144014400C8000050
:107C60000000010401040FFC1104110411001800AC
:107C7000000000D601290129012901C901060000DF
:107C800010041FFC008401000100010400FC00043A
:107C900000000104190419FC0004000400000000A5
:107CA0000000000300010101190119FE000000009D
:107CB00010041FFC0024004001B4010C010400006A
:107CC0000000100410041FFC000400040000000069
:107CD000010401FC0104010001FC0104010000FC9D
:107CE000010401FC008401000100010400FC000407
:107CF000000000F8010401040104010400F8000080
:107D0000010101FF008501040104008800700000EA
:107D100000000070008801040104010501FF00015A
:107D20000104010401FC0084010401000180000041
:107D3000000000CC0124012401240124019800004A
:107D400000000100010007F8010401040000000028
:107D5000010001F8000400040004010801FC000413
:107D6000010001800170000C001001600180010021
:107D700001F0010C003001C00030010C01F00100E5
:107D800000000104018C00740170018C01040000EA
:107D9000010101810171000E0018016001800100E4
:107DA00000000184010C013401440184010C000035
:107DB000000000000000000001003EFC4002400204
:107DC0000000000000000000FFFF000000000000B5
:107DD0000000400240023EFC0100000000000000E4
:107DE0000000600080008000400040002000200073
:107DF0000000000000000000000000000000000083
:107E00003F40000000000000000030004000300053
:107E10004000000009000BC03D000BC03D00090000
:107E200018C024407FE0224031800000180024C0A8
:107E30001B000D803240018003801C4027401C80C5
:107E4000074000401000600000000000000000003B
:107E50000000000000001F80204040200000402063
:107E600020401F8000000000090006001F8006005F
:107E700009000000040004003F800400040000002A
:107E8000001000600000000000000000040004007A
:107E90000400040004000000000000400000000096
:107EA00000000000002001C0060038004000000073
:107EB0001F802040204020401F8000000000104014
:107EC0003FC000400000000018C021402240244074
:107ED0001840000010802040244024401B800000F7
:107EE00002000D0011003FC0014000003C80244012
:107EF00024402440238000001F802440244034403C
:107F0000038000003000200027C03800200000005F
:107F10001B802440244024401B8000001C0022C001
:107F2000224022401F8000000000000008400000A6
:107F300000000000000000000460000000000000DD
:107F4000000004000A0011002080404009000900E0
:107F500009000900090000000000404020801100D5
:107F60000A0004001800200023402400180000002C
:107F70001F802040274029401F400000004007C0CC
:107F800039000F0001C0004020403FC02440244081
:107F90001B8000001F8020402040204030800000D7
:107FA00020403FC0204020401F80000020403FC0B4
:107FB00024402E4030C0000020403FC024402E000E
:107FC000300000000F00108020402240338002006B
:107FD00020403FC0040004003FC02040204020401B
:107FE0003FC02040204000000060202020203FC0F3
:107FF0002000200020403FC024400B0030C0204023
:1080000020403FC020400040004000C03FC03C0036
:1080100003C03C003FC0000020403FC00C40230094
:108020003FC020001F802040204020401F800000D3
:1080300020403FC024402400180000001F80214041
:10804000214020E01FA0000020403FC02440260027
:1080500019C0004018C02440244022403180000054
:10806000300020403FC020403000000020003F8012
:10807000004000403F80200020003E0001C007007B
:1080800038002000380007C03C0007C0380000005E
:10809000204039C0060039C0204000002000384090
:1080A00007C0384020000000304021C02640384042
:1080B00020C00000000000007FE0402040200000C1
:1080C000000070000C000380004000000000402011
:1080D00040207FE000000000000020004000200061
:1080E0000000000000100010001000100010001030
:1080F00000000000400000000000000000000280BE
:108100000540054003C0004020003FC0044004403B
:10811000038000000000038004400440064000008B
:1081200000000380044024403FC000400000038062
:108130000540054003400000000004401FC02440EB
:1081400024402000000002E00550055006500420A5
:1081500020403FC00440040003C000400000044031
:1081600027C000400000000000100010041027E0AD
:108170000000000020403FC00140070004C0044050
:10818000204020403FC000400040000007C00400E5
:1081900007C0040003C00000044007C004400400FE
:1081A00003C000400000038004400440038000003E
:1081B000041007F004500440038000000000038016
:1081C0000440045007F00010044007C002400400BF
:1081D00004000000000006400540054004C0000007
:1081E000000004001F8004400040000004000780DD
:1081F0000040044007C000400400070004C00180A4
:1082000006000400060001C0070001C006000000CF
:10821000044006C0010006C004400000041007101E
:1082200004E00180060004000000044005C0064090
:10823000044000000000000004007BE0402000003B
:10824000000000000000FFF00000000000004020DF
:108250007BE004000000000040008000400020009F
:1082600020004000FFFF00000000000000000000B0
:1082700000000000000000000000000000000000FE
:1082800000000000000000000000000000000000EE
:1082900000000000000000000000000000000000DE
:1082A00000000000000000000000000000000000CE
:1082B00000000000000000000000000000000000BE
:1082C00000000000000000000000000000000000AE
:1082D000000000000000000000000000000000009E
:1082E000000000000000000000000000000000008E
:1082F000000000000000000000000000000000007E
:10830000000000000000000000000000000000006D
:10831000000000000000000000000000000000005D
:10832000000000000000000000000000000000004D
:10833000000000000000000000000000000000003D
:10834000000000000000000000000000000000002D
:10835000000000000000000000000000000000001D
:108360000000000010B412480168802252000A4345
:10837000026010490A68104B13400B6002680F4BF3
:10838000134003600E4A13680124A343136002687C
:108390000C4B1340036008680B4A02400A6000203F
:1083A0000A490860802000050949086010BC704730
:1083B000001002400C1002400C40FF88F6FFF6FE51
:1083C00008100240FFFFFBFFFFFF02FF10100240FA
:1083D00008ED00E041542B48545450504152413D67
:1083E0002255524C222C22687474703A2F2F6E66DC
:1083F000636170692E636F6E656B2E6E65742F639B
:108400006F6E656B2F64756C6965756469656D6405
:10841000616E683F7569645461673D00000000004B
:10842000000000000000000000000000000000004C
:10843000000000000000000041542B4854545050EC
:108440004152413D2255524C222C22687474703A9C
:108450002F2F6E66636170692E636F6E656B2E6E73
:1084600065742F636F6E656B2F61637469766573D6
:10847000696D220000000000000000000000000004
:1084800000000000000000000000000000000000EC
:1084900000000000000000000000000070B4012394
:1084A000002413E00168001D194202D04D466D1EE4
:1084B00049190C60091D121F042AFAD20D009607F3
:1084C00001D50C80AD1C1A4000D02C700268001D34
:1084D000002AE7D170BC704730B401220EE0036877
:1084E000C31844680830144202D04D466D1E64190A
:1084F0001D6825601B1D241D091FF9D10168001D81
:108500000029ECD130BC704710B5074979441831C7
:10851000064C7C44163404E0081D0A688918884714
:108520000100A142F8D110BD0800000028000000A1
:108530006DFFFFFF900B0000040000200000000012
:1085400099FFFFFF040000009C01000000000020D4
:108550000000000041542B53415042523D332C3116
:108560002C22436F6E74797065222C22475052532F
:108570002200000041542B53415042523D332C31D4
:108580002C2241504E222C22652D636F6E6E656346
:108590007422000000F00DF8002801D0FFF7B4FFAE
:1085A00000BF00BF002000BF00BFFBF7A9F900F02B
:1085B00002F80120704780B500F002F801BDFEE727
:1085C0000746384600F002F8FBE7FEE780B500BF3B
:1085D00000BF024A11001820ABBEFBE726000200D4
:1085E00041542B48545450504152413D2243494438
:1085F000222C3100704700B5FEE77047704780B508
:1086000000F002F801BDFEE702480168491C016064
:10861000704700BF8C0B0020537461727420466158
:10862000696C65640000000041542B48545450416B
:108630004354494F4E3D300041542B534150425218
:108640003D312C310000000000000000000000005F
:108650000102030406070809014880470148004752
:1086600065830008A5860008436F6E6E65637469B4
:108670006E67000053656E64696E672E2E2E0000D3
:1086800052652D436865636B0000000041542B4820
:10869000545450494E495400030406080C10182045
:1086A0003000000000BF00BF00BF00BFFFF772FF37
:1086B000436F6E656B00000041542B4347534E00DF
:1086C00057656C636F6D6500537563636573730005
:1086D0000403260100000000000000000102030462
:1086E0000202010D00002000FEE7FEE7FEE7FEE7C4
:1086F000FEE7FEE7FEE7FEE7FEE7FEE7FEE7FEE752
:07870000FEE7FEE70302554E
:04000005080086A5C4
:00000001FF
