:020000040800F2
:1000000018100020ED7A00080D7B00080F7B000817
:1000100000000000000000000000000000000000E0
:10002000000000000000000000000000117B00083C
:100030000000000000000000137B0008157B000892
:10004000D34E0008435C0008E35D00081F5E000813
:1000500037690008976900089B6C00082B6D000841
:100060002F6D0008B37A0008BF7A0008357B0008BE
:10007000377B0008397B0008000000003B7B00084C
:10008000000000003D7B00080000000000000000B0
:100090003F7B000800000000417B0008437B000814
:1000A000457B0008477B0008497B00084B7B000824
:1000B0004D7B00084F7B000800000000517B0008CA
:1000C000000000000000001000000003FFC000005E
:1000D0001E0038000070F0040000C0F8010001802C
:1000E000F800000300F8000006007F00000C007F0D
:1000F00080001800FFE0001800E0F0003000E06031
:10010000003001E000003007E0000060EF800000F8
:1001100061FE00000061FE00000061FE0000006062
:10012000EE000000600F0000007007C0000030010A
:10013000E000003000E000003800E000001800F0AF
:1001400070001C00F5E0000E003FC0000600FF003C
:10015000000701F0000003C1F8000000E1F0010019
:100160000078600600001F0018000007FFE0000094
:1001700000FE000000000000000000000000000081
:10018000000000000000000000000000000000006F
:10019000000000000000000000000000000000005F
:1001A000000000000000000000000000000000004F
:1001B000000000000000000000000000000000003F
:10390000F0B59BB000F046FD00F0F8FCB04801684F
:1039100004220A43026001680422114000910099C8
:10392000016801220A4302600168CA07D20F0092AF
:103930000099016802220A430260006802210840DF
:10394000009000981421684600F038FD0022802184
:103950004900A020C00500F0F5FD80204000009047
:103960000120019000260296022003906946A020C3
:10397000C00500F02BFD002280214900A020C005D9
:1039800000F0E0FDFA20400100F0F0FD914D92487A
:10399000A8600120287391482861082068610120EF
:1039A00068738F48A8612020E86180202862012088
:1039B000A8622800083000F0E9FD2C00BC348948DA
:1039C000206089486060A6600120E0602661666131
:1039D000A661E6612662200000F086FE002120003C
:1039E00001F054F80021200001F06DF8142101A825
:1039F00000F0E4FC684606607C48E06426657F20B1
:103A00006065FF20A065E66526666666A6660930E5
:103A1000281801F081F801A80680867004960596A2
:103A2000002201A984204000281801F0D6F8684639
:103A30000121017041708170C670002269468420A6
:103A40004000281801F064F969488A4908609627FF
:103A5000BF01084647608660C66006610C24446169
:103A60008661C6610662466201F034FA61486249C5
:103A7000016047608660C660066144618661C66118
:103A80000662466201F026FA01F054FD002001F0C2
:103A900085FD282000902823584A0C21002001F0A1
:103AA0002FFE012000901023554A0821322001F0FA
:103AB000F7FD01F052FD012000900C23514A17211F
:103AC000282001F0EDFD0120009010236AA223219F
:103AD000372001F0E5FD01F040FD4B4800F0CEFB42
:103AE0000A2000F043FD00F0D7F9484C002806D129
:103AF0000C2322002A21192000F09AFAF8E700206E
:103B0000D14954240A18D27A303A2B181A55401C3D
:103B10000F28F7DB1023CD4A3221192000F088FA54
:103B2000CB48686682204000A866EE662E676E6706
:103B3000AE67FC30E86720208021685084202E503A
:103B400088202E508C202E5007209021685028006D
:103B5000643001F085FE40216E54642000F006FDC3
:103B60001421684600F02AFC00220421A020C00590
:103B700000F0E8FC04200090012001900296022051
:103B800003906946A020C00500F020FC012204211A
:103B9000A020C00500F0D6FC962000F0E7FC002233
:103BA0000421A020C00500F0CDFC962000F0DEFC32
:103BB00001220421A020C00500F0C4FC962000F0E2
:103BC000D5FC642000F0D2FCA24801909FE000BF29
:103BD0002C100240E00900200030024021100000BB
:103BE000FFFF000000540040BB7C70000028004034
:103BF00000380140900B002000440040C000000845
:103C000078400008C83F0008D47A0008DC7A000831
:103C10007F1CFCB2042C4FDC02A88F49642201F007
:103C2000DDFF022CF4DC0A2000F0A0FC02A800F06A
:103C300027FA012000F09AFC0024FA239B000122BD
:103C400028004430E1B241180A4801F079F9012016
:103C500000F08CFC641CE0B21028EEDBA44AA5A1A5
:103C60007EA000F032FA0028D2D00120009010236C
:103C700001A203E0100B00202E00000028213C20B0
:103C800001F00EFD01F069FC0A2000F06FFC984C79
:103C9000220098A17AA000F018FA0028B8D02100DC
:103CA000C8A000F08DFA0028B2D010236CA23221F7
:103CB000192000F0BDF90027FA20400000F056FC62
:103CC0003F060AD0102300BF67A22F21192000F061
:103CD000AFF9FA20C00000F049FC10236CA2322199
:103CE000192000F0A5F980277F00A024E405012217
:103CF0003900200000F026FCC820400000F036FC0F
:103D000000223900200000F01DFC40216E540022EA
:103D10000421A020C00500F015FC962000F026FC30
:103D200001220421A020C00500F00CFC0022290083
:103D30002C31019800F0C6FF00229620400029187F
:103D4000019801F04BF82E20285C412168542D2168
:103D5000695C4222A9542C22AA5C4323EA5400291C
:103D600001D0142902D1042804DB06E0282904D15B
:103D7000042802DA04204021685400274020285CEF
:103D8000002803D0012800D143E734E001F051FFBF
:103D90000028BCD1012001F048FF0028B7D128003D
:103DA00001F04BFF8028B2D1EE7129004431280088
:103DB00001F08FFF002809D129004431095C30311E
:103DC0002A0044321154401C1028F5DB642000F016
:103DD000CDFB686E0168402291430160642000F0D1
:103DE000C5FB102323A22D21192000F021F9012069
:103DF000402168548BE710231EA22D21192000F0CA
:103E000017F902A8AA49642201F0E8FE39A7384C44
:103E10002200390002A800F058F900280BD0220037
:103E2000390000BF16A000F050F9002803D0610847
:103E300064A000F0C5F940216E54102314A2322171
:103E4000192000F0F5F862E7EC070020903E00082A
:103E500000300140E80A00209478000822000000A9
:103E6000537563636573730052652D436865636BB7
:103E70000000000053656E64696E672E2E2E0000F0
:103E800041542B48545450414354494F4E3D300007
:103E900057656C636F6D65007CB5002001F07EFB9B
:103EA000282000902823BF4A0C21002001F028FC84
:103EB00001200090102300BF6FA20821322001F0E2
:103EC000EFFB012000900C233FA21721282001F0D6
:103ED000E7FBB5A401200090102322002321372006
:103EE00001F0DEFB01F039FB02A6014D04E000BF4A
:103EF000102700004F4B00002A003100ABA000F05B
:103F0000E4F800285DD00120009010232200232136
:103F10003C2001F0C5FB01F020FB0A2000F026FB4D
:103F20002A0031002BA000F0D0F8002849D0012051
:103F30000090102322002321412001F0B1FB01F069
:103F40000CFB0A2000F012FB2A00310029A000F02F
:103F5000BCF8002835D00120009010232200232136
:103F6000462001F09DFB01F0F8FA0A2000F0FEFA6D
:103F70002A00310027A000F0A8F8002821D0012055
:103F800000901023220023214B2001F089FB01F037
:103F9000E4FA0A2000F0EAFA2A00310021A000F039
:103FA00094F800280DD00120009010232200232136
:103FB000502001F075FB01F0D0FA0A2000F0D6FA8B
:103FC000012076BD32303000436F6E6E65637469D8
:103FD0006E67000041542B53415042523D332C3107
:103FE0002C22436F6E74797065222C2247505253F5
:103FF0002200000041542B53415042523D332C319A
:104000002C2241504E222C22652D636F6E6E65630B
:104010007422000041542B53415042523D312C3107
:104020000000000041542B48545450494E4954005C
:10403000F8B507000E0015001C00002001F0AEFAD4
:10404000282000902823574A0C21002001F058FB1B
:1040500001200090102300BF07A202213E2001F0A2
:104060001FFB0120009023002A003900300001F0DE
:1040700017FB01F072FAF1BD436F6E656B00000033
:1040800010B5040001F0A6FEFA239B0082B22100C5
:10409000774800F055FF10BD10B5040001F09AFEFE
:1040A000FA239B0082B22100724800F049FF10BD44
:1040B000F878000810B5040001F08CFE0100012919
:1040C00002DB200000F07AF910BDF2B582B00500E5
:1040D000170000206946087000248648FFF7EAFFB1
:1040E00001F080FE060001F07DFE0190280001F045
:1040F00071FEFA239B0082B229005D4800F020FF88
:10410000FA239B0002225CA1594800F019FF01E04C
:1041100069460870FA239B0001227749544800F051
:1041200080FF002806D001F05DFE801B8742F1D29F
:104130000020FEBD01F056FE6F4909786D4AE3B2DA
:10414000D154641C0600019D08E06B480078694961
:10415000E2B28854641C01F045FE050001F042FE05
:10416000801BB84218D2FA239B00012262494048C2
:1041700000F057FF0028E8D001F034FE401B65280E
:10418000ECD3019502995B4801F032FE0028BFD0C4
:1041900001206946087004E001956846007800280F
:1041A000B8D005E0C00000082E0000004154000017
:1041B0005048FFF771FF6846007840B2FEBD00002E
:1041C000F1B582B00F00002069460870002449480C
:1041D000FFF770FF01F006FE060001F003FE050088
:1041E00001E069460870FA239B00012242492048F9
:1041F00000F017FF002806D001F0F4FD801B874275
:10420000F1D20020FEBD01F0EDFD3B490978394AAD
:10421000E3B2D154641C060008E037480078354901
:10422000E2B28854641C01F0DDFD050001F0DAFD06
:10423000801BB84217D2FA239B0001222E490C485A
:1042400000F0EFFE0028E8D001F0CCFD401B65280F
:10425000ECD30299274801F0CBFD0028C1D0012002
:104260006946087003E0684600780028BBD09FE7E5
:10427000100B0020900B00200D0A0000F8B506007E
:104280000020694608703D48FFF714FF300001F038
:10429000A1FD3B4DFA24A400230082B23100280086
:1042A00000F04EFE2300022236A1280000F048FE56
:1042B000354E6700684604783B0001223100280033
:1042C00000F0AFFE002805D1307830302B49E2B243
:1042D0008854641CE0B21F28EEDB3B000122310051
:1042E000280000F09EFE0028F7D02448FFF7D4FEF7
:1042F0000020F2BD04040020140C002018B59BB06F
:1043000038210DA800F05AF81421684600F056F83C
:10431000202105A800F052F81C4801681C4A0A40F8
:10432000C10C114301602A200D90012010901390C0
:10433000102111911290022017900024189440042B
:10434000199000011A900DA801F06AFD0F2000904D
:10435000032001900294039404940121684601F023
:10436000AFFF2B200590079408940A9480208002C8
:10437000069005A802F0BAF81CB010BDEC070020AA
:10438000100B00200D0A0000F8050020007000400E
:10439000FFE7FFFF10B500240748016840220A43E9
:1043A0000260002002F074F9002801D0012401E02D
:1043B00002F088F9200010BD00200240002200BF5A
:1043C000094202D0491E4254FCD17047F0B585B075
:1043D0000A0000255E49019101210391010037E0A7
:1043E000062003E05B488142FAD10520A04030431B
:1043F000186001980368029CE04303405468E4039A
:1044000002D51C00029B2343019C2360019B5B6837
:1044100003405468A40302D51C00029B2343019C63
:104420006360019B9B6803405468E40202D51C0052
:10443000029B2343019CA360019BDB6818405368E7
:104440009B0202D5030002981843019BD8606D1CA3
:1044500010680300EB4073D0039BAB400493034010
:10446000029302980028F2D0A8006B46187050689A
:10447000022801D012280ED1E80880000818036A2B
:104480006C4626781C2434400F26A640B343166998
:10449000A6401E4306626B0003209840C443506848
:1044A000012805D0022803D0112801D012280FD1ED
:1044B00088682040D6689E4006438E604868049E07
:1044C000B04356683609039F3740AF4007434F60FB
:1044D0000E6803202640576807409F4037430F600F
:1044E000CE68344096689E402643CE605368DB0019
:1044F000ADD5194B1B68039C1C43174B1C60174B15
:10450000AC08A4001B191E686C4627780C243C409C
:104510000F27A740BE43A027FF05B94201D10020C5
:1045200064E70F4FB94201D103985FE70D4FB942DD
:1045300001D102205AE70C4FB94200D052E755E7AB
:1045400005B0F0BD002A01D08161704781627047DB
:1045500000040140001C00503410024008000140DB
:104560000004005000080050000C005038B5040052
:1045700001F038FC05000020C043844200D0641CD8
:1045800001F030FC401BA042FAD331BD10B504004D
:1045900020D0607F002803D12077200002F09DF812
:1045A00002206077207900280DD1164821684861E3
:1045B00020688168182291438160607900280BD1BE
:1045C0000020C04309E0E268A168200002F052F92F
:1045D0000028F2D0012010BD206921680861206800
:1045E00081686022914362690A4382602068816821
:1045F00080229143A2690A438260012060770020F3
:1046000010BD0000B71DC10470B5040000200223D6
:104610006377236801259E682E439E60236A012BE1
:104620000DD013D3032B05D00DD30FE086008E5988
:104630001E60401C23689042F8D3186806E02000F2
:1046400000F006F802E0200000F039F8657770BD50
:1046500070B50300140000200A000CE029780E0653
:10466000697809043143AE7836020E43E978314364
:104670001D682960401C81005518A1088842EDD3AF
:10468000A007800F18D0012803D128781968087076
:1046900012E0022806D128780002697808431968D8
:1046A000088009E0032807D11868297809026A7888
:1046B00011430180A97801701868006870BD70B559
:1046C000002305E02E8836046D882E4326605B1C8F
:1046D0009C000D1904685608B342F3D3D00701D5E6
:1046E00028882080206870BD70B5040001D10120A9
:1046F00070BD2500403500266878002803D12E7053
:10470000200001F0FAFF242068702068016801226F
:104710009143016060686C49014020680161216833
:104720006A488A6802408A60E1680129A16801D16B
:10473000C24301E0842212020A4321688A60E168D0
:10474000022903D1802109012268516021684A6849
:104750005F4B13434B602168CA681040C8602069F2
:1047600061690143A069000208432168C860E069EB
:10477000216A0143206801602068016801220A4320
:1047800002606E60202068702663AE70002070BDED
:10479000FEB504000F0016001D00403040782028B0
:1047A00000D07FE04020205C01287BD00120402108
:1047B000605401F017FB0190009019230122D103EE
:1047C000200000F09BF8002869D121202100403111
:1047D00048701020210040318870002021004031B5
:1047E00048606662658560633A48089E618DFF296E
:1047F0000BD9FF212185009080235B04FF22390023
:10480000200000F02DF9019D11E0628D22850090BD
:1048100080239B04D2B2F2E7FF2020850020009085
:1048200080235B04FF223900200000F019F9608D1D
:1048300000282DD02A003100200000F08BF800283D
:104840002DD1606A007821688862606A401C6062CD
:104850002148618D09186185218D08182085618D99
:104860000029E4D00004E2D1009533000022802129
:10487000200000F043F8002811D1608DFF28CBD82C
:10488000628D22850020009080239B04D2B2CAE76B
:1048900031002A00200000F086F8002801D0012015
:1048A000FEBD01E00220FEBD20202168C861216814
:1048B0004A680A4B13404B60210040314870002089
:1048C00088700870FEBD0000FFFFFFF0FF7FFFFF54
:1048D0000080000200200080FFFF000000E800FED2
:1048E00000688169890701D50021816201218269FF
:1048F0000A4002D18269114381617047F8B50024F2
:1049000005000F00684602701E0028688069384064
:10491000B84201D1012000E00020694609788842B0
:1049200016D10020C0438642EFD001F05BFA069911
:10493000401A864201D3002EE7D1280040302021C2
:1049400042680A4342604170847004700120F2BDE5
:104950000020F2BD70B504000D00160020688069CB
:1049600080071ED432002900200000F040F8002803
:1049700001D0012070BD0020C0438542EED001F07F
:1049800031FA801B854201D3002DE7D12000403051
:10499000202142680A434260417000218170017009
:1049A000E7E7002070BDF8B5202504000E001700D1
:1049B00020688069284018D13A003100200000F0BA
:1049C00016F800280FD101F00DFAC01B864201D362
:1049D000002EEDD1200040304168294341604570F0
:1049E0000021817001700120F2BD0020F2BDF8B5F8
:1049F000102403689B69234030D005000F0000920B
:104A0000202628688169314011D10020C0438742A7
:104A1000F7D001F0E7F90099401A874201D3002F3F
:104A2000EFD12800403041683143416010E0C4615B
:104A30002868C6612800FFF753FF28684168114ABB
:104A40000A40426028004030416804220A43426024
:104A500046700021817001700120F2BD0020F2BD7E
:104A6000F0B5059C00684568660D074F3743BD43A8
:104A70008905890D294312040A4313431C434460EA
:104A8000F0BD000000E800FEFF63FF0370B5020008
:104A900040325378202B14D14023C35C012B10D01B
:104AA0000123137024245470046825689D432560F5
:104AB00004682568164E2E40266004682568294340
:104AC0001CE0022070BD70B5020040325378202BEC
:104AD00012D14023C35C012B0ED001231370242478
:104AE0005470046825689D43256004682568094E54
:104AF0002E400902314301E0022070BD21600068B0
:104B000001680B430360202050700020107070BDBE
:104B1000FFEFFFFFFFF0FFFFF8B5040054D00027C0
:104B20002120205C002804D120216754200001F0BE
:104B30000DFE022021216054CA20216848625320C2
:104B4000216848620425FF26200000F091F9002822
:104B5000206803D046622120255435E081689E4AB2
:104B60000A40826020688168636822691A43A369E9
:104B700013430B438360E068216808612068016982
:104B8000A26812040A4302612068C168802291432E
:104B9000C1602068C16C03229143C1642068C16C6C
:104BA000E269636913430B43C3642068806880062D
:104BB0000CD4200000F040F9002807D0206846629D
:104BC00021202554202027540120F2BD2068466270
:104BD0000120212160540020F2BDF8B504002020FE
:104BE000205C012801D10220F2BD01202023E054E5
:104BF00002202123E0542368402000250091002A50
:104C0000996815D1084001D10099CD7000980078BD
:104C100000F04CF906040098407800F047F90002D3
:104C2000304306000098807800F040F930430DE0F2
:104C3000084001D10099CD700098007800040099D7
:104C40004978090201430098807808430099C9789F
:104C50000F040743CA202168486253202168486234
:104C6000FF26200000F004F900281FD16B483840CF
:104C70002168086020688168694A0A40826020686B
:104C80008168009AD268009B1B6913430B438360C1
:104C90002068C16880229143C160206880688006D6
:104CA0000DD4200000F0C8F8002808D02068466223
:104CB000042021216054202025540120F2BD2068C9
:104CC0004662B1E010B50C000068816A616001695C
:104CD0004904490CA160016850480840010C8B064A
:104CE0009B0E2370030A6370A07040200140E170A6
:104CF000002A0BD1207800F0E4F82070607800F0F2
:104D0000E0F86070A07800F0DCF8A070002010BD22
:104D1000F8B504002020205C012801D10220F2BD5A
:104D20000D00012020216054022021216054687868
:104D3000002A3ED1C10603D5EF2101400A31697036
:104D4000E87800F0B3F80604687800F0AFF80002E5
:104D500030430600A87800F0A9F8304329784F03C3
:104D60000743CA2021684862532021684862FF2512
:104D70000026200000F07CF8002811D12948384096
:104D8000216848602068C16880229143C160206822
:104D90008068800617D4200000F04EF8002812D05A
:104DA00020684562042021216054202026540120DF
:104DB000F2BDE978090400020843A9780143287884
:104DC00047030F43CDE7206845620120212160544D
:104DD000202026540020F2BDBFFF8FFF10B50C002D
:104DE000006841680F480840010CE170C104C90E19
:104DF0006170A0700004400F2070002A0BD1E07891
:104E000000F05FF8E070607800F05BF86070A07808
:104E100000F057F8A070002010BD00007F7F7F00D9
:104E2000FFFFFBFF3FFFFF000120212160542020F6
:104E300025540020F2BD000038B504002068C16888
:104E4000A0229143C16000F0CDFF05002068C0683A
:104E5000800607D400F0C6FF401B04498842F5D302
:104E6000032032BD002032BD00000000E903000035
:104E700070B5050028684024C168214011D1002187
:104E8000C943C16000F0AEFF06002868C06820403A
:104E900007D100F0A7FF801B03498842F5D3032008
:104EA00070BD002070BD0000E9030000002101E09A
:104EB000491C0A38C2B20A2AFAD209010843C0B210
:104EC000704701090A2251430007000F0818C0B2B9
:104ED0007047FEE738B5040014D0250070356868C7
:104EE000002803D12870200001F073FC24206860A2
:104EF00020680168012291430160200000F01CF944
:104F0000012801D1012032BD606A002802D02000B2
:104F100000F024FA20684168084A0A40426020688C
:104F200081682A2291438160FFE72068016801229D
:104F30000A430260200000F077FA32BDFFB7FFFF9E
:104F4000FEB507001C0070304068202867D10D00B6
:104F50000BD0160009D0B86880214901884206D1DB
:104F60003869002803D1E80701D50120FEBD702073
:104F7000385C012853D0012070217854002039007A
:104F80007031C860212039007031486000F02AFF7C
:104F900050217E52390050314E80B9688022520132
:104FA000914206D13969002903D1019402900C0085
:104FB00011E029000025F8E721788162641C07E0F0
:104FC0003868002CF8D12988C905C90D8162AD1C4B
:104FD0007088401E70803E005036708800280AD0CD
:104FE00001980090029B00228021380000F04BFACB
:104FF0000028E5D009E0029B0198009000224021A2
:10500000380000F040FA002801D00320FEBD38002F
:10501000703020214160002101700020FEBD02207F
:10502000FEBDF8B584B007001C005830006A202887
:105030007CD10D000DD068460280002A09D0B868E6
:1050400080214901884206D13869002803D1E80748
:1050500001D501206BE03E005836307E012865D036
:1050600001203076002070622220306200F0BAFE0B
:10507000694609883180694609887180BA68FF21CC
:1050800080235B019A4204D13A69002A14D129494C
:1050900012E07F23002A03D13A69002A07D10BE0EE
:1050A000802149058A4206D13969002901D1B3809E
:1050B00003E03F2100E00021B180390058318988A8
:1050C000BA6880235B019A4208D13A69002A05D167
:1050D0002E00039402900191150011E02A00002691
:1050E000F7E7014029706D1C07E03868002D406A21
:1050F0000199F6D101403180B61C6088401E608065
:105100003C005834608800280BD003980090029B24
:1051100000222021380000F0B6F90028E5D0032055
:1051200005E0202020620020207600E0022005B06B
:10513000F0BD0000FF010000F8B5050010221023AB
:10514000002000242E6831687D4F0F40A968394344
:105150002F690F4369693943EF690F4337607768F7
:1051600078493940EF680F437760A9690091764923
:105170008E4203D0009F296A39430091B768734972
:105180003940009F0F43B76071498E421FD171496A
:10519000C96C8907890F04D0022926D03DD3032981
:1051A00037E0012319006C4ED302EF699F4200D013
:1051B00090E0002908D0012967D0022968D004298D
:1051C00070D0082974D07BE001F066F96CE0954955
:1051D0008E420CD15F49C96C0C270F401BD0042FA5
:1051E0001BD0082F01D00C2F13E0022318E05649E2
:1051F0008E4215D15749CF6CC021090139400AD0E0
:105200009701B94209D0D701B942EED0C0273F017A
:10521000B94204D004E0002302E0042300E00823A4
:1052200049498E42BED1002B06D0022B11D0042B4F
:1052300017D0082B18D07DE001F02EF900287AD085
:105240006E6871008919884274D3310381420DD28E
:1052500070E040480068024001D0A548F0E7A5484A
:10526000EEE701F0E3F8E9E7C80BE9E7030E020215
:1052700070080021801859413200002301F026FBFC
:105280009D4941189D4A914250E001F00FF90BE011
:10529000696848082F4B1B681A4001D0984A0AE0F9
:1052A000984A08E001F0C2F8696840004A0802E044
:1052B000696848081203801801F052FB80B200E0D0
:1052C000012401001039B14234D206400007400FDA
:1052D00030432CE0002908D0012909D002290AD046
:1052E000042912D0082916D01CE001F0D5F80EE0F0
:1052F00001F0DCF80BE069684808164B1B681A409F
:1053000001D07B4A05E07B4A03E001F08FF8696831
:105310004A08801802E069684808C01801F020FBBC
:1053200080B200E0012401001039B14202D22968A4
:10533000C86000E001240020286668662000F2BDF5
:10534000F369FFEFFFCFFFFF00480040FFF4FFFFCE
:105350000038014000100240F0FF00002421415CB1
:10536000C90706D501684A68674B1340826A1A4329
:105370004A602421415C890706D501684A68634B6D
:105380001340C26A1A434A602421415C490706D58A
:1053900001684A685E4B1340026B1A434A6024213D
:1053A000415C090706D501684A685A4B1340426BB5
:1053B0001A434A602421415CC90606D501688A68FF
:1053C000554B1340826B1A438A602421415C890645
:1053D00006D501688A68514B1340C26B1A438A6034
:1053E0002421415C490611D501684A684C4B1340A1
:1053F000026C1A434A60026C80235B039A4205D117
:105400004A68484B1340426C1A434A602421415C6D
:10541000090606D501684A68434B1340806C18435F
:105420004860704700440040F8B504000025703023
:10543000C56000F0D7FC07003C4E206800680007FC
:1054400009D500963B00002280218903200000F04E
:105450001AF800280DD12068006840070BD5009687
:105460003B0000228021C903200000F00CF8002836
:1054700001D00320F2BD21007031202048608860F7
:105480000D700020F2BDFEB5089E002405000F003F
:105490006846027001932868C0693840B84201D15B
:1054A000012000E000206946097888421DD10020D3
:1054B000C0438642EFD000F095FC0199401A864225
:1054C00001D3002EE7D128680168194A0A4002601A
:1054D0002868816801229143816028007030202172
:1054E0004160816004700320FEBD0020FEBD00000D
:1054F00000093D000024F40000FDFFFF00FD0F0047
:1055000000127A000048E801FFFFFDFFFFFFFEFFE9
:10551000FFFFFBFFFF7FFFFFFFEFFFFFFFDFFFFF4F
:10552000FFFFEFFFFFFF9FFFFFFFF7FFFFFFFF0101
:105530005FFEFFFF80B500F01EF901BDE0B501AAD6
:10554000002900D040211170507064200090022387
:1055500078216748FFF71CF907BD70B50024654E38
:10556000002120005038C0B2FFF7E8FF00210220E0
:10557000FFF7E4FF00211020FFF7E0FF00250121E5
:1055800030192A06520D805CFFF7D8FF6D1CE8B277
:105590008028F4DB641C082CE2DB70BD70B50600CB
:1055A0000024544D002120005038C0B2FFF7C6FF40
:1055B00000210220FFF7C2FF00211020FFF7BEFFED
:1055C000002029190206520D8E54401CC1B28029B8
:1055D000F7DB641C082CE5DBFFF7BFFF70BD8028FC
:1055E00000DB704730B5402914DA0723CC081B1BB9
:1055F000DBB2012407254907490F691A8C403D4950
:10560000C0000818C15C002A02D00C43C45430BD4D
:10561000A143C15430BDFCB585B006000C00203A52
:1056200000200090D2B234481301C01804903348CF
:105630000C235A43801803906846007E029005E0D0
:10564000019C761C01990098401C00900098029AD9
:10565000904223DA6846007E0C2801D1039800E0CE
:105660000498009A855C0CA80078002800D1ED43CE
:1056700008270191280601D5012200E00022E1B2AD
:10568000F0B2FFF7ACFF6D00641CE0B20199401A64
:1056900002998842D4D07F1EECD1D3E707B0F0BD89
:1056A000F8B505000C0016001F001CE080207908EA
:1056B000401AE9B288420ADA0025E4194020C01BEA
:1056C000E1B2884203DA00240020FFF767FF684652
:1056D000007E00903B003278E1B2E8B2FFF79BFF1A
:1056E00078082D18761C30780028DFD1F1BD000035
:1056F0009C0A002004000020306D00082073000880
:10570000F8B51700DA1D9410640FA2185603360C72
:10571000002524E0280070433818A110490F09190A
:10572000C910405C80216207520FD14008420AD064
:105730000122684640784119C9B26846807800194C
:10574000C0B2FFF74CFF641C684600788442E1DB7E
:1057500068468078694649786A4613786D1C6A46BF
:10576000127E954206DA00246A46907068464170BF
:105770000370E9E7F1BD80B50021AE20FFF7DEFE42
:1057800000210020FFF7DAFE00211020FFF7D6FEEF
:1057900000214020FFF7D2FE00218120FFF7CEFE3E
:1057A0000021CF20FFF7CAFE0021A120FFF7C6FE8F
:1057B0000021C020FFF7C2FE0021A620FFF7BEFE99
:1057C0000021A820FFF7BAFE00213F20FFF7B6FE18
:1057D0000021D320FFF7B2FE00210020FFF7AEFE2C
:1057E0000021D520FFF7AAFE00218020FFF7A6FEAA
:1057F0000021D920FFF7A2FE0021F120FFF79EFE35
:105800000021DA20FFF79AFE00211220FFF796FE12
:105810000021DB20FFF792FE00214020FFF78EFEE3
:1058200000212020FFF78AFE00210220FFF786FEDC
:1058300000218D20FFF782FE00211420FFF77EFE5D
:105840000021A420FFF77AFE0021A620FFF776FEB4
:105850000021AF20FFF772FE0020FFF79FFE01BD81
:1058600070B5040001D1012070BD0025A56226009D
:1058700050367078002803D13570200000F071FF99
:1058800002207070206801684022914301606068C6
:10589000A1680143E0680843216901436069084346
:1058A000A169D20011400143E0690843216A014324
:1058B000A06A084321680860A069000C0421084020
:1058C000616A0143206841602068C169034A0A4057
:1058D000C261756001207070002070BDFFF7FFFF8E
:1058E000F8B584B004000F001500012003900020DB
:1058F000694608705020205C012801D10220F9E09F
:105900001E0001205021605400F06CFA029020002B
:105910005030417801290BD0626882235B009A42A3
:1059200004D1A268002A01D1042901D0022073E029
:10593000002F03D0002D01D0310001D101206BE0F8
:10594000210050314978042903D00521220050322A
:10595000517000210191220050325160A563E68709
:10596000A6872763E686A68601992164019961646A
:10597000216840220B68134002D10B681A430A6069
:105980000A9FE168802212019142616847D1002993
:1059900001D0012E09D1206B00882168C860206BDE
:1059A000801C2063E08E401EE086039E029DE08EF8
:1059B000002802D1E08F00287AD02068816889070A
:1059C0000ED5E18E00290BD0002E09D0216B09885D
:1059D000C160206B801C2063E08E401EE086019E2B
:1059E000216801208A6802400CD0E28F002A09D089
:1059F000C968A26B1180A16B891CA163E18F491E4C
:105A0000E187012600F0EEF9401BB842CFD3002019
:105A1000C0438742CBD003206946087062E000296A
:105A200001D0012E09D1206B007821680873206B0A
:105A3000401C2063E08E401EE086039E029DE08EA7
:105A4000002802D1E08F002832D021682A488A68D5
:105A500092070ED5E28E002A0BD0002E09D0226BC1
:105A600012780A73216B491C2163E18E0918E186C3
:105A7000019E216801228B6813400CD0E38F002B1C
:105A800009D0C968A36B1970A16B491CA163E18F90
:105A90000818E087012600F0A5F9401BB84204D39E
:105AA0000020C0438742B6D1C9E7002FC7D1B2E773
:105AB00039002A00200000F06FF8002807D00120EC
:105AC0006946087020202100503148600AE0A06833
:105AD000002807D1019802902068C168029180686F
:105AE0000290029820005030012141700021017085
:105AF0006846007805B0F0BDFFFF0000FEB5012448
:105B0000002506000191684602701F003068806819
:105B1000019901400198814201D1012000E000205B
:105B200069460978884234D00020C0438742EDD0CE
:105B300000F058F90899401AB84201D2002FE5D177
:105B400030684168E02291434160706882214900D9
:105B500088420BD1B068E103884202D049098842EB
:105B600004D1306801684022914301606003B16A4A
:105B7000814208D131680A68174B13400B603168C5
:105B80000A681043086030005030447005700320EC
:105B9000FEBD0020FEBD000038B504000B0020252E
:105BA000606882214900884203D10092002280214E
:105BB00006E05120205C05280CD100920022012132
:105BC0002000FFF79BFF002804D0606D054365654A
:105BD000032032BD002032BDFFDFFFFF70B4103A5A
:105BE00003D378C9103A78C0FBD2530701D318C940
:105BF00018C001D508C908C0D20704D30B88038098
:105C0000891C801C002A01D50B78037070BC70477A
:105C10008B0701D18307E1D0124205D00B78491CD4
:105C20000370401C521EF9D1704780B500F08AFF06
:105C300002BD80B500F062FF02BD80B501F000F842
:105C400002BDFEE77CB55F4B984240D200910F2128
:105C500004090C40050A0D40060B7219121906239F
:105C60005A4301405018C0B201900A2100F064FE6E
:105C7000F20091194018AA00511940180419E4B211
:105C800020000A2100F058FE69004518EDB22800F6
:105C90000A2100F051FEB1004018C0B20A2100F004
:105CA0004BFE0098017028000A2100F045FE009884
:105CB000417020000A2100F03FFE00988170019899
:105CC0000A2100F039FE0098C170002076BD012045
:105CD00076BDF8B584B00C00817923296FDAC179DB
:105CE00000296CD1017842781202891800918178DC
:105CF000C278120289180191017942791202891839
:105D0000029180790390019D00980399A42292004A
:105D10005143029AE4235B015A438918AD22520190
:105D20006A43891840180090264E310000F018FE92
:105D300007000098310000F013FE009103982249FB
:105D4000484338180299214A5143401806214D43CF
:105D5000451901952800310000F002FE07002800D7
:105D6000310000F0FDFD01910398194948433818AE
:105D700002992A225143451802952800310000F06B
:105D8000EFFD07002800310000F0EAFD02910398C2
:105D9000FF211A3148433818310000F0E1FD03912A
:105DA0000325A80021000C31424289186A46105888
:105DB00080B2FFF747FF6D1EF3D5002000E0012001
:105DC00005B0F0BD10270000F71D000018250000E9
:105DD0008D120000431C0178401C0942FBD1C01AFF
:105DE0007047FEE701480068704700BF100C0020B4
:105DF00070B50D78002D11D00C0004E0491C0E7810
:105E0000964207D0401C290000F03EFF002805D034
:105E1000010023005B1C1A78002AEFD170BDFEE759
:105E2000F8B584B0060061D0BB4CE0680C2101409D
:105E30000091E06880214902084003903078C00753
:105E40000ED54F000098082804D00C2871D1039873
:105E500088426ED12068074002D07068002845D083
:105E6000022001903068022101402ED0F068BE4F20
:105E70000921C94304220292009A042A06D0009AFA
:105E80000C2A01D1039A002A00D08DE02268042355
:105E9000134001D0002829D06268174032691202ED
:105EA0003A436260226811400843206000F0BEFA65
:105EB000AE49E2681206120F895CC840AC4908601E
:105EC000002000F0E5FB010032D13078C00600D49C
:105ED000B5E0BB4F600D02900098002800D08EE026
:105EE00020680299014003D0F069002800D1DAE16E
:105EF00060680740706A3843606060680002000AAA
:105F0000316A0906014361600120716A490B491C2D
:105F10008840C0039549E2681206120F895CC840A8
:105F200093490860002000F0B3FB010000D186E037
:105F3000BCE17068884201D1206809E0A021C90253
:105F40008842206806D179000143216020687908E1
:105F500001430AE0B3490140216020687908084004
:105F6000019001982068B0490140216070680028C4
:105F70000DD0FFF737FF05002068384000D06FE7ED
:105F8000FFF730FF401B6528F6D303208EE1FFF7B3
:105F900029FF05002068384000D161E7FFF722FFA4
:105FA000401B6528F6D3F0E7002817D0226811407F
:105FB00008432060FFF716FF0500206802990140A2
:105FC00005D1FFF70FFF401B0228F6D9DDE7606817
:105FD0000740306900023843606076E7206801219D
:105FE00088432060FFF7FEFE05002068029901400B
:105FF000F3D0FFF7F7FE401B0228F6D9C5E7F0699A
:106000000028206832D0A10D01432160FFF7EAFE8D
:10601000050020680299014005D1FFF7E3FE401B0F
:106020000228F6D9B1E760680740706A38436060BB
:1060300060680002000A316A090601436160307835
:10604000000733D570690028206D1FD0012101435E
:106050002165FFF7C7FE0500206D0199014025D19C
:10606000FFF7C0FE401B0228F6D98EE79049014099
:106070002160FFF7B7FE0500206802990140DED0DD
:10608000FFF7B0FE401B0228F6D97EE701218843C6
:106090002065FFF7A7FE0500206D0199014005D09E
:1060A000FFF7A0FE401B0228F6D96EE730784007C4
:1060B00067D50020029080204005A16B014004D1EB
:1060C000A16B0843A063012002907A4F3868C00595
:1060D0000FD43868A10D01433960FFF783FE050036
:1060E0003868C00505D4FFF77DFE401B6528F7D34F
:1060F0004BE7B268A10D8A420AD06F48002A0DD042
:10610000A023DB009A4209D1206D8A000243226558
:10611000206D0143216508E000100240216D644AB2
:106120000A402265216D08402065670DB06800288F
:106130000CD0FFF757FE0500206D38401AD1FFF74D
:1061400051FE401B5D498842F6D31EE7FFF74AFE29
:106150000500206D38400DD0FFF744FE401B574925
:106160008842F6D311E700BFFFE0FFFFB4790008D3
:10617000000000200298002803D0A06BA74901402E
:10618000A1633078800632D5A548B169002919D0BD
:106190000121A2680A43A260626B11436163016836
:1061A000420C0A430260FFF71DFE0500A06801993A
:1061B00001401CD1FFF716FE401B0228F6D9E4E689
:1061C000FF1FFFFFA16801229143A1600168954A6A
:1061D0000A400260FFF706FE0500A0680199014031
:1061E00005D0FFF7FFFD401B0228F6D9CDE6B06AC7
:1061F00000285AD000990C2940D08025AD048A4946
:10620000022820682CD101402160FFF7EBFD070038
:10621000206828400AD0FFF7E5FDC01B0228F7D907
:10622000B3E600BFFFFFFEFFFFFFFBFFE0689E49F4
:106230000140F06A0843316B0143706B0843E06032
:106240002068690801432160FFF7CCFD0600206843
:1062500028402AD1FFF7C6FD801B0228F7D994E613
:1062600001402160FFF7BEFD0600206828401CD0D9
:10627000FFF7B8FD801B0228F7D986E6012812D067
:10628000E068802149020140F26A91420BD1F0217D
:1062900089030140326B914205D1C02109040140BC
:1062A000706B814201D0012000E0002005B0F0BDFC
:1062B000FFFEFFFF00700040FFFBFFFF891300009F
:1062C000F8B5040032D000917D480068C107C90FBD
:1062D000009881420CD27A48016801229143009AC9
:1062E0000A4302600068C107C90F009881426FD15C
:1062F000744D2078800705D5E868F0218843A168AF
:106300000143E96001272068384051D060680228C5
:1063100002D12968890308E0032802D1296889018C
:1063200003E00128296802D1490702D450E0890519
:106330004ED5E968032291430843E860FFF752FD18
:106340000600606802280CD1E8680C210140082989
:106350002ED0FFF747FD801B5B498842F4D3032012
:10636000F2BD03280BD1E8680C2101400C291FD095
:10637000FFF738FD801B54498842F4D3EFE701282A
:106380000BD1E8680C210140042911D0FFF72AFD48
:10639000801B4D498842F4D3E1E7E8680C210140B5
:1063A00006D0FFF71FFD801B47498842F5D3D6E78B
:1063B0004348009902683A4091420BD20168B943C0
:1063C000009A0A430260006807400098874201D0A3
:1063D0000120F2BD2078400705D5E8683B4901401F
:1063E000E0680843E8602078000706D5E868384987
:1063F00001402069C0000843E86000F017F8354903
:10640000EA681206120F895CC84033490860002010
:1064100000F03EF9010000D10020F2BDFFFFFFEFC8
:1064200020000140FFDFFFFFFFFFFFFEF0B5254D1D
:10643000E9682B4A9308102654080C2008400428C9
:1064400004D0082809D00C2809D01DE0286806408F
:1064500001D01800F0BD1000F0BD2000F0BD2148B3
:106460008F023F0FC05D0902890F491CEF68FF03CF
:1064700001D5604305E02C68264001D0584300E078
:10648000504300F06DFAF0BD686801210004400F30
:10649000401C8140C803F0BD0F48006812490F4AF4
:1064A0001268520508E00000FFFF02FF0A4800687A
:1064B0000D490A4A12689204520F895CC84070471D
:1064C000002002400010024089130000FFF8FFFF87
:1064D000FFC7FFFFB4790008000000200C10024045
:1064E0000024F400C4790008287B0008FEB50400ED
:1064F0005C4D207880067CD50020019080204005EE
:10650000A96B014004D1A96B0843A8630120019045
:10651000AF0D55480068384013D1534800900068CB
:10652000384300990860FFF75DFC0600009800689A
:10653000384006D1FFF756FC801B6528F6D30320B0
:10654000FEBD29686068C02292030A40C021890309
:1065500001408A420BD0C02189020140C022920230
:10656000914204D12968890301D50120FEBD2A6D1D
:10657000C0218902114022D0C022920202409142E1
:106580001DD0207880061AD5296D38480840296D1D
:10659000FA020A432A65296D354A0A402A652865A8
:1065A00007400CD0FFF71EFC0600286D800506D4BE
:1065B000FFF718FC801B2F498842F6D3BFE76168BC
:1065C000C020800202000A40824206D12A682A4B7B
:1065D000134002010A401A432A60296D6268104084
:1065E000084328650198002803D0A86B234901407F
:1065F000A9632078C00705D5E86C03218843A1680A
:106600000143E9642078800705D5E86C0C218843B4
:10661000E1680143E9642078400705D5E86C184932
:10662000014020690843E8642078000705D5E86C3C
:106630001449014060690843E8642078400605D5A4
:10664000E86C11490140E0690843E86420780006DD
:1066500005D5E86C0D490140A0690843E8640020B5
:10666000FEBD00000010024000700040FFFFFCFF74
:10667000FFFFF7FF89130000FFFFCFFFFFFFFFEFD2
:10668000FFF3FFFFFFCFFFFFFFFFFFFBFFFFF3FF66
:1066900038B5050000240A480068FA21890000F096
:1066A0005FF900F01CFB002801D0012405E029005F
:1066B00000220020C04300F00EFB200032BD00BFCE
:1066C000000000206048016801220A43026041681E
:1066D000802252050A434260704781B000685B49DE
:1066E000884208D1880C5A490A6802430A6009683E
:1066F00008400090009801B0704710B586B00400C3
:106700001422002101A800F005FB206851498842AD
:106710001AD10220504C21680143216021680840B1
:1067200000900098C0200190122002900120039058
:1067300003210491059001A94848FDF747FEE06850
:10674000802189030143E16006B010BD006844491F
:10675000884205D1434801688022D2020A43026080
:10676000704770B586B0040014220021684600F01E
:10677000D1FA20683C49884229D137488168820C87
:106780000A438260012401682143016000682040BF
:1067900005900598F02000900220019000250295B8
:1067A000032003900495A026F60569463000FDF706
:1067B0000DFE10200090019402950395694630006B
:1067C000FDF704FE012210213000FDF7BBFE06B0EC
:1067D00070BDF8B586B0040014220021684600F0B0
:1067E00099FA266803200421022201231A4C00256D
:1067F0001E4FBE420CD1A6680F033743A760266820
:106800001E432660246823400593059B43020EE047
:10681000174FBE4215D1E668CF033743E7602668BD
:106820001E432660246823400593059B0C23009398
:1068300001920295039004916946A020C005FDF7DE
:10684000C5FD07B0F0BD000034100240003002402A
:1068500030100240005400402C1002400004005050
:106860000028004050100240003001400038014034
:1068700000440040F4B502000B0000211F24012554
:106880002000441E002805D01F2020401F00C740C4
:106890002F40F5D01800009B1E0007D0082B11D008
:1068A000102B0CD0182B0FD1072C0DD21268506171
:1068B00090681824A043034393600800F2BD082C9D
:1068C000F4D301E0102CF1D30121F6E7124224D0D9
:1068D000994228D970B500251B4202D00C00002136
:1068E00009E00024012649186441944200D3A41A07
:1068F0007641F8D33100012601E0764109D2001833
:1069000064416D41A41A9D41F7D2A4185D41B619A6
:10691000F5D3300022002B0070BD1B42D8D108B542
:1069200000F002FA08BD01D19042D3D202000B0060
:10693000002100207047FEE7CA0F00D04942031033
:106940005A400DD004B500D3404200F009F8009A37
:10695000D20701D34942124200D5404204BD000093
:10696000094214D088420FD30122030C01D1000444
:106970001204002300185B418B4200D35B1A524182
:10698000F8D319001000704701000020704708B5C7
:1069900000F0CCF908BDFEE7F1B586B00D0001A806
:1069A000002101700F2102A8FDF708FDA027FF05B7
:1069B000002210213800FDF7C5FD9D4E32200090C9
:1069C000012302AA01A93000FEF78AFF0400322049
:1069D00000902B071B0F02AA06993000FEF780FFDC
:1069E0000500012210213800FDF7ACFD0A20FDF75B
:1069F000BDFD2543280007B0F0BD0000FEB501A88D
:106A0000401C00BF9AA10A78027001A80021017001
:106A1000A027FF05002210213800FDF793FD002577
:106A2000834E002013E06D1C0400322000900123EF
:106A300001AA01A9491C3000FEF752FF01002143C1
:106A4000080069460979082211406A461171ECB2C2
:106A500069460979082901D0FE2CE4DB05000122F2
:106A600010213800FDF76EFD0A20FDF77FFDFE2C9A
:106A700000DB0125E8B2FEBDF8B586B0050001A82F
:106A80007CA10A7802700F2102A8FDF797FCA027CD
:106A9000FF05002210213800FDF754FD644E32201E
:106AA0000090012302AA01A93000FEF719FF04009B
:106AB0003220009002232A0002A93000FEF710FFC6
:106AC00020430400287880280DD1687800280AD057
:106AD0003221009103071B0FAA1C02A93000FEF708
:106AE000FFFE20430400012210213800FDF72AFD9B
:106AF0000A20FDF73BFD200007B0F0BD18B589B0B6
:106B0000684600BF5CA10A7802701E2101A8FDF74B
:106B100055FC012401216846FFF73EFF00280DD1F6
:106B2000FFF76CFF002809D101A8FFF7A5FF002897
:106B300004D168460079552800D1002420000AB00D
:106B400010BD000018B5C1B0012824D1684600BFAF
:106B50004AA10A68026001A8364980225200FFF764
:106B60003DF8012404216846FFF716FF002810D1E4
:106B7000FFF744FF00280CD101A8FFF77DFF002894
:106B800007D101A80178002903D14078002800D15D
:106B90000024200000E0012042B010BDF8B588B00C
:106BA00006000F0015001E216846FDF707FC8E2425
:106BB00039003000FFF7F0FE002835D1FFF71EFF47
:106BC000002831D16846FFF757FF00282CD16E46C8
:106BD00030782870802826D17078032824DDC21EE2
:106BE0006A70D2B2B11CA81CFFF712F8B01C697809
:106BF000405C2900FC3108706A78B218D2784A707B
:106C00006B78F3181B798B7011020E186A78A91C27
:106C10000948FDF7F9FC0949414036B209B28E42F4
:106C200002D12C7800E00400200009B0F0BD000083
:106C3000440A002094770008E8090020FFFF0000C4
:106C400038B5C2B0040068460DA10CC90CC002AA38
:106C500005216846FFF7A2FF050002A80822417837
:106C60004118891F2000FEF7D3FF280043B030BD34
:106C70000300000002000000550000000202010DA8
:106C80000403260100000000C9B202788A4203D042
:106C9000401C002AF9D100207047FEE710B5C20061
:106CA00018231340FF249C40E2438907090E9940B2
:106CB000030007D5144B0007000F08388008800038
:106CC000181803E011489B089B00C01803681A407D
:106CD0001143016010BD80B5FFF7E0FF01BD10B5A5
:106CE000401E80214904884201D3012010BD084C78
:106CF000606003210020C043FFF7D0FF0020A060A8
:106D00000721216010BD00001CED00E000E400E060
:106D100010E000E010B5040008001100020020009F
:106D2000FDF74EFB200010BD7047FEE77047FEE701
:106D30000000000000000000000000000000000053
:106D40000000000000001FCC000C0000000000004C
:106D50000000080030006000080030006000000003
:106D6000022003FC1E20022003FC1E200220000043
:106D700000000E1811043FFF10840C780000000082
:106D80000F0010840F3800C00778188400780000C6
:106D900000780F8410C411240E9800E400840008C9
:106DA0000800680070000000000000000000000003
:106DB00000000000000007E0181820044002000056
:106DC000000040022004181807E000000000000046
:106DD0000240024001800FF00180024002400000AA
:106DE0000080008000800FF800800080008000009C
:106DF0000001000D000E0000000000000000000077
:106E00000000008000800080008000800080008002
:106E10000000000C000C000000000000000000005A
:106E20000000000600180060018006001800200025
:106E3000000007F0080810041004080807F000001C
:106E40000000080408041FFC000400040000000007
:106E500000000E0C10141024104411840E0C0000BD
:106E600000000C1810041104110412880C700000AA
:106E7000000000E00320042408241FFC002400007C
:106E800000001F9810841104110410881070000075
:106E9000000007F008881104110418880070000031
:106EA00000001C00100010FC13001C00100000006B
:106EB00000000E3811441084108411440E38000074
:106EC00000000700088C10441044088807F00000F8
:106ED000000000000000030C030C00000000000094
:106EE000000000000001010600000000000000009A
:106EF0000000008001400220041008081004000077
:106F00000220022002200220022002200220000093
:106F10000000100408080410022001400080000056
:106F200000000E001200100C106C10800F0000000A
:106F300003E00C1813E4142417C4082807D0000039
:106F40000004003C03C41C40074000E4001C000493
:106F500010041FFC1104110411040E8800700000BD
:106F600003E00C1810041004100410081C1000009A
:106F700010041FFC100410041004080807F000009F
:106F800010041FFC1104110417C410040818000099
:106F900010041FFC1104110017C0100008000000AD
:106FA00003E00C181004100410441C78004000008A
:106FB00010041FFC10840080008010841FFC10044B
:106FC0000000100410041FFC100410040000000056
:106FD00000030001100110011FFE1000100000004E
:106FE00010041FFC110403801464181C100400001A
:106FF00010041FFC1004000400040004000C000036
:1070000010041FFC1F0000FC1F001FFC10040000E8
:1070100010041FFC0C04030000E010181FFC1000FB
:1070200007F00808100410041004080807F0000016
:1070300010041FFC10841080108010800F000000CE
:1070400007F0081810241024101C080A07F200008A
:1070500010041FFC1104110011C011300E0C0004AB
:1070600000000E1C11041084108410441C38000011
:107070001800100010041FFC10041000180000007D
:1070800010001FF810040004000410041FF8100082
:1070900010001E0011E0001C007013801C00100086
:1070A0001FC0103C00E01F0000E0103C1FC00000AB
:1070B0001004180C163401C001C01634180C10044A
:1070C00010001C00130400FC13041C00100000003E
:1070D0000804101C1064108413041C041018000011
:1070E0000000000000007FFE40024002400200005D
:1070F000000030000C0003800060001C0003000052
:1071000000004002400240027FFE0000000000003C
:10711000000000002000400040004000200000006F
:107120000001000100010001000100010001000157
:1071300000004000400020000000000000000000AF
:1071400000000098012401440144014400FC0004B3
:1071500010001FFC0088010401040088007000007A
:107160000000007000880104010401040088000090
:107170000000007000880104010411081FFC0004D5
:10718000000000F8014401440144014400C800002B
:107190000000010401040FFC110411041100180087
:1071A000000000D601290129012901C901060000BA
:1071B00010041FFC008401000100010400FC000415
:1071C00000000104190419FC000400040000000080
:1071D0000000000300010101190119FE0000000078
:1071E00010041FFC0024004001B4010C0104000045
:1071F0000000100410041FFC000400040000000044
:10720000010401FC0104010001FC0104010000FC77
:10721000010401FC008401000100010400FC0004E1
:10722000000000F8010401040104010400F800005A
:10723000010101FF008501040104008800700000C5
:1072400000000070008801040104010501FF000135
:107250000104010401FC008401040100018000001C
:10726000000000CC01240124012401240198000025
:1072700000000100010007F8010401040000000003
:10728000010001F8000400040004010801FC0004EE
:10729000010001800170000C0010016001800100FC
:1072A00001F0010C003001C00030010C01F00100C0
:1072B00000000104018C00740170018C01040000C5
:1072C000010101810171000E0018016001800100BF
:1072D00000000184010C013401440184010C000010
:1072E000000000000000000001003EFC40024002DF
:1072F0000000000000000000FFFF00000000000090
:107300000000400240023EFC0100000000000000BE
:10731000000060008000800040004000200020004D
:10732000000000000000000000000000000000005D
:107330003F4000000000000000003000400030002E
:107340004000000009000BC03D000BC03D000900DB
:1073500018C024407FE0224031800000180024C083
:107360001B000D803240018003801C4027401C80A0
:107370000740004010006000000000000000000016
:107380000000000000001F8020404020000040203E
:1073900020401F8000000000090006001F8006003A
:1073A00009000000040004003F8004000400000005
:1073B0000010006000000000000000000400040055
:1073C0000400040004000000000000400000000071
:1073D00000000000002001C006003800400000004E
:1073E0001F802040204020401F80000000001040EF
:1073F0003FC000400000000018C02140224024404F
:107400001840000010802040244024401B800000D1
:1074100002000D0011003FC0014000003C802440EC
:1074200024402440238000001F8024402440344016
:10743000038000003000200027C03800200000003A
:107440001B802440244024401B8000001C0022C0DC
:10745000224022401F800000000000000840000081
:1074600000000000000000000460000000000000B8
:10747000000004000A0011002080404009000900BB
:1074800009000900090000000000404020801100B0
:107490000A00040018002000234024001800000007
:1074A0001F802040274029401F400000004007C0A7
:1074B00039000F0001C0004020403FC0244024405C
:1074C0001B8000001F8020402040204030800000B2
:1074D00020403FC0204020401F80000020403FC08F
:1074E00024402E4030C0000020403FC024402E00E9
:1074F000300000000F001080204022403380020046
:1075000020403FC0040004003FC0204020402040F5
:107510003FC02040204000000060202020203FC0CD
:107520002000200020403FC024400B0030C02040FD
:1075300020403FC020400040004000C03FC03C0011
:1075400003C03C003FC0000020403FC00C4023006F
:107550003FC020001F802040204020401F800000AE
:1075600020403FC024402400180000001F8021401C
:10757000214020E01FA0000020403FC02440260002
:1075800019C0004018C0244024402240318000002F
:10759000300020403FC020403000000020003F80ED
:1075A000004000403F80200020003E0001C0070056
:1075B00038002000380007C03C0007C03800000039
:1075C000204039C0060039C020400000200038406B
:1075D00007C0384020000000304021C0264038401D
:1075E00020C00000000000007FE04020402000009C
:1075F000000070000C0003800040000000004020EC
:1076000040207FE00000000000002000400020003B
:10761000000000000010001000100010001000100A
:107620000000000040000000000000000000028098
:107630000540054003C0004020003FC00440044016
:107640000380000000000380044004400640000066
:1076500000000380044024403FC00040000003803D
:107660000540054003400000000004401FC02440C6
:1076700024402000000002E0055005500650042080
:1076800020403FC00440040003C00040000004400C
:1076900027C000400000000000100010041027E088
:1076A0000000000020403FC00140070004C004402B
:1076B000204020403FC000400040000007C00400C0
:1076C00007C0040003C00000044007C004400400D9
:1076D00003C0004000000380044004400380000019
:1076E000041007F0045004400380000000000380F1
:1076F0000440045007F00010044007C0024004009A
:1077000004000000000006400540054004C00000E1
:10771000000004001F8004400040000004000780B7
:107720000040044007C000400400070004C001807E
:1077300006000400060001C0070001C006000000AA
:10774000044006C0010006C00440000004100710F9
:1077500004E00180060004000000044005C006406B
:10776000044000000000000004007BE04020000016
:10777000000000000000FFF00000000000004020BA
:107780007BE004000000000040008000400020007A
:1077900020004000FFFF000000000000000000008B
:1077A00000000000000000000000000000000000D9
:1077B00000000000000000000000000000000000C9
:1077C00000000000000000000000000000000000B9
:1077D00000000000000000000000000000000000A9
:1077E0000000000000000000000000000000000099
:1077F0000000000000000000000000000000000089
:107800000000000000000000000000000000000078
:107810000000000000000000000000000000000068
:107820000000000000000000000000000000000058
:107830000000000000000000000000000000000048
:107840000000000000000000000000000000000038
:107850000000000000000000000000000000000028
:107860000000000000000000000000000000000018
:107870000000000000000000000000000000000008
:1078800000000000000000000000000000000000F8
:107890000000000041542B48545450504152413D87
:1078A0002255524C222C22687474703A2F2F6E6627
:1078B000636170692E636F6E656B2E6E65742F63E6
:1078C0006F6E656B2F64756C6965756469656D6451
:1078D000616E683F7569645461673D000000000097
:1078E0000000000000000000000000000000000098
:1078F000000000000000000041542B485454505038
:107900004152413D2255524C222C22687474703AE7
:107910002F2F74657374636F6465657370383236C6
:10792000362E303030776562686F73746170702EF8
:10793000636F6D2F72656365697665722E7068700E
:107940003F5549443D2200000000000000000000B7
:107950000000000000000000000000000F48016867
:10796000820D0A430260C1680D4A0A40C260016884
:107970000C4A0A40026081680122914381600168DB
:10798000094A0A400260C168084A0A40C2600021F0
:107990000161802000050649086070470010024020
:1079A0000C40FF88F6FFF6FEFFFFFBFFFFFF02FF24
:1079B00008ED00E0000000000000000001020304E8
:1079C00006070809030406080C1018203000000000
:1079D00070B40123002413E00168001D194202D095
:1079E0004D466D1E49190C60091D121F042AFAD25A
:1079F0000D00960701D50C80AD1C1A4000D02C70EC
:107A00000268001D002AE7D170BC704730B4012223
:107A10000EE00368C31844680830144202D04D4693
:107A20006D1E64191D6825601B1D241D091FF9D1D9
:107A30000168001D0029ECD130BC704710B5074922
:107A400079441831064C7C44163404E0081D0A6859
:107A5000891888470100A142F8D110BD0800000034
:107A6000280000006DFFFFFF140C00000400002040
:107A70000000000099FFFFFF04000000B4000000B8
:107A8000000000200000000000F00DF8002801D0E8
:107A9000FFF7D4FF00BF00BF002000BF00BFFBF70F
:107AA0002FFF00F002F80120704780B500F002F8C7
:107AB00001BDFEE70746384600F002F8FBE7FEE7A7
:107AC00080B500BF00BF024A11001820ABBEFBE723
:107AD0002600020041542B4347534E0053746172F9
:107AE00074204661696C65640000000001488047AD
:107AF000014800475D7900081D7B000802480168C5
:107B0000491C0160704700BF100C00207047FEE761
:107B10007047704780B5FFF7F1FF01BD00BF00BFA0
:107B200000BF00BFFFF7B0FF000000000102030428
:107B300000002000FEE7FEE7FEE7FEE7FEE7FEE7C7
:107B4000FEE7FEE7FEE7FEE7FEE7FEE7FEE7FEE70D
:027B5000FEE74E
:0400000508007B1D57
:00000001FF
